:020000040800F2
:10000000D00A0020010100084915000899110008D4
:10001000A1140008990D0008EF230008000000005B
:10002000000000000000000000000000311A00087D
:100030009D0D000800000000D9180008111E0008DE
:100040001B0100081B0100081B0100081B01000820
:100050001B0100081B0100081B0100081B01000810
:100060001B0100081B010008E50D00081B0100082A
:100070001B0100081B0100081B0100081B010008F0
:100080001B0100081B0100081B0100081B010008E0
:100090001B0100081B0100081B0100081B010008D0
:1000A0001B0100081B0100081B0100081B010008C0
:1000B000751E00089D1E00081B0100081B0100089A
:1000C0001B0100081B0100081B0100081B010008A0
:1000D0001B0100082D20000851200008E520000821
:1000E0001B0100081B0100081B010008DFF80CD0F1
:1000F00000F0DAFB00480047152E0008D00A002067
:100100000648804706480047FEE7FEE7FEE7FEE7B1
:10011000FEE7FEE7FEE7FEE7FEE7FEE7151E000846
:10012000ED000008D2B201E000F8012B491EFBD21D
:1001300070470022F6E710B513460A4604461946F2
:10014000FFF7F0FF204610BD30B505462A460B46A6
:1001500012F8010B13F8014B08B1A042F8D01CB102
:10016000002802D06D1CF1E7284630BD421C10F873
:10017000011B0029FBD1801A7047000070B50F4D9C
:1001800000B92868002412E00A4602E09E4203D02B
:10019000521C1378002BF9D1DAB2224305D02BB1CF
:1001A00024B1002100F8011B04E00446401C06783D
:1001B000002EE9D12860204670BD000060000020BC
:1001C0000FB400B58DB010A909900B9000914FF0BD
:1001D000FF300A9000200C900548069005480790D3
:1001E0006A4609A80F9900F079F90DB05DF814FB83
:1001F000F9040008170500082DE9FF5F1D464FF0C0
:10020000FF3BD5E9014691465F464FF00008A969DA
:100210007F1C01988847296A824688470028F6D1C2
:10022000BAF1FF3F0CD024F4C064002E19DD600643
:1002300014D5BAF12B0F09D0BAF12D0F0ED103E06E
:10024000584604B0BDE8F09F44F48064A9697F1C5F
:1002500001988847761E8246002E02DDBAF1300FE3
:1002600003D0B9F1000F26D032E0A969761E44F41C
:1002700000747F1C019888478246002E05DDBAF184
:10028000780F06D0BAF1580F03D0B9F1000F10D093
:100290001EE0B9F1000F02D0B9F1100F18D1A96911
:1002A000761E24F400747F1C019888478246102033
:1002B00002E0082000E00A20814609E008FB090866
:1002C000A969761E44F400747F1C01988847824611
:1002D000002E05DD4946504600F0EBF80028EDDA27
:1002E000E96901988847A00502D46FF00100A8E7EA
:1002F000E00725D1600613D5600502D5C8F10000DE
:1003000000E0404629680A1D2A600968220501D5D7
:10031000087015E0220701D5088011E008600FE0A1
:100320002868011D29600068210502D580F8008039
:1003300006E0210702D5A0F8008001E0C0F80080A7
:1003400038467EE72DE9FF5FD2E901A74FF00008AC
:10035000916999461446DDF838B0464601988847B9
:10036000054659EA0B0005D009E0A169761C019801
:1003700088470546216A284688470028F5D1681C29
:1003800003D05FEACA7005D015E04FF0FF3004B02B
:10039000BDE8F09F2068011D2160D0F800800AE0D0
:1003A0005FEACA7001D108F8015BA169761C7F1E63
:1003B000019888470546002F1ADD681C18D0B9F14E
:1003C000000F0DD0E81705EBD060421120F01F00A0
:1003D00059F822102A1A012090400142E0D107E08A
:1003E000BBF1000FDCD1216A284688470028D7D00E
:1003F000E16901988847BBF1000F07D1002E05DDA8
:100400005FEACA7002D1002188F80010A068B842E3
:1004100003DDBBF1000F03D017B16FF00100B6E7A9
:100420003046B4E730B50B460146002020220124B7
:1004300009E021FA02F59D4205D303FA02F5491BB2
:1004400004FA02F52844151EA2F10102F1DC30BDC8
:100450002DE9F05F0546002092469B4688460646F9
:10046000814640241BE0284641464746224600F08C
:100470003CFA53465A46C01A914110D311461846C9
:10048000224600F023FA2D1A67EB01084F46224658
:100490000120002100F01AFA17EB00094E41201E3E
:1004A000A4F10104DFDC484631462A464346BDE854
:1004B000F09F3A2800D2303820F02002412A01D3A0
:1004C000A2F13700884201D34FF0FF30704700009F
:1004D000026811441378016018467047D1600449DE
:1004E00051610449116200211161114600F024BAE2
:1004F000D10400082F090008426842B1016811F8D0
:10050000013B23B1521EC0E9001218467047012179
:10051000C160881E704742685AB1C368016843B918
:1005200083688B4205D0491E521CC0E9001200208E
:1005300070474FF0FF3070472DE9FE4F804681EA4B
:100540000300C00F0C46009021F0004123F000454D
:10055000B8EB0200A94105D24046214690461C4610
:100560000B46024623F00040104347D0270DC7F347
:100570000A00C3F30A510290401A019040286BDA36
:10058000C3F3130040F4801B0098924620B100236F
:10059000D2EB030A63EB0B0B01985946C0F1400202
:1005A000504600F093F906460D4650465946019ACA
:1005B00000F0ABF910EB08006141002487EA11520A
:1005C00084EAE7731A4340D0009A62B3019A012A81
:1005D0004FEA075215DC001B61EB02014FF00042AD
:1005E00002EA0752CDE90042001C41F58011324673
:1005F0002B4600F046FB03B0BDE8F08F4046214695
:10060000F9E7001B61EB0201001C41F580130018A3
:100610005B412018A2F5001747EB030140EAD570B3
:10062000B6196D4111E06D084FEA360645EAC0750E
:100630004FEA0752001B61EB0201001C41F58011DB
:1006400049084FEA30000019514132462B4603B0A9
:10065000BDE8F04F00F006BB0098012240000023E7
:10066000D0EB020263EBE073009821464FEAE0749E
:10067000B8EB000061EB0401E9E783F000435BE7BE
:1006800081F0004158E72DE9FE4F81EA030404F0B0
:10069000004421F0004100944FF0000B23F0004390
:1006A00050EA01045ED052EA03045BD0C3F30A545B
:1006B000C1F30A552C44A4F2F3340194A0FB025474
:1006C000C1F3130141F48011C3F3130343F4801306
:1006D00001FB024400FB034E840A970A44EA81545A
:1006E00047EA8357A4FB076802958D0A05FB078537
:1006F0004FEA932C04FB0C542705029D4FEA065841
:1007000047EA1637B5EB08056EEB070C870E920E1D
:1007100047EA811742EA8312A7FB0201B6EB0B01FD
:1007200064EB00042B0D43EA0C335E1844EB1C50C1
:10073000DA465146E7FB0201C5F313044FEA0B33D7
:1007400043EA14534FEA0432019C43EA0603A4F13E
:100750000C040294009CCDE900B400F092FA03B0BE
:10076000BDE8F08F00200146F9E72DE9F04D81EA60
:10077000030404F0004B21F0004514464FF0000A3A
:1007800023F0004150EA050220D054EA01021DD0B6
:10079000C5F30A570246C5F31303C1F31300C1F3AF
:1007A0000A5640F4801543F48013A7EB0608101B8B
:1007B000D64608F2FD3873EB050002D308F10108B4
:1007C00001E092185B41B8F1000F03DA0020014606
:1007D000BDE8F08D00204FF48011064684460EE0FF
:1007E000171B73EB050705D3121B63EB05030643C9
:1007F0004CEA010C49084FEA300092185B4150EA7C
:100800000107EDD152EA030012D082EA040083EA24
:100810000501084305D0101BAB4106D2012200237D
:1008200006E000224FF0004302E06FF00102531097
:100830001AEB06004CEB085110EB0A0041EB0B01E0
:10084000BDE8F04D00F00EBAC1F30A52C1F3130136
:1008500040F2FF3341F480119A4202DA002001464F
:10086000704740F233439A42A2F2334202DC5242D2
:1008700000F03BB800F02AB830B5041E71F1000456
:1008800004DB4FF00044404264EB0101141E73F19D
:10089000000405DB1C464FF00043524263EB0403A7
:1008A000994208BF904230BD064C074D06E0E06813
:1008B00040F0010394E8070098471034AC42F6D3A7
:1008C000FFF718FC0837000828370008202A04DB47
:1008D000203A00FA02F1002070479140C2F1200353
:1008E00020FA03F3194390407047202A04DB203A92
:1008F00021FA02F00021704721FA02F3D040C2F140
:1009000020029140084319467047202A06DBCB1786
:10091000203A41FA02F043EAE07306E041FA02F3BA
:10092000D040C2F120029140084319467047C0B23E
:100930004FF4F05100F0F4B92DE9F34F8BB04FF0C4
:10094000000801F10C000C464FF0010B46460DF17A
:10095000080A01906269012101989047051E2DD077
:10096000252D2CD0216A8847C0B1626901210198E8
:100970009047216A88470028F7D1411E6269019893
:10098000904700E0761CA1690B988847216A884748
:100990000028F7D1E1690B988847DBE7A1690B983C
:1009A00088470746A84201D1761CD3E7E1690B9836
:1009B00088477F1C02D1B8F1000F6FD046E10027B5
:1009C00062693D463946019890472A2804D16269F8
:1009D0000121019890470125DFF884926269012185
:1009E00001989047A0F130010A290AD24F45E5DC71
:1009F00007EB870100EB4107303FDFD445F01005DE
:100A0000ECE7E90601D46FF000476C280AD04C28C7
:100A100014D0682815D06A280DD074281CD07A28E4
:100A20001AD01DE062690121019890476C2802D01C
:100A300045F0040514E045F002050DE045F0200501
:100A40000AE06269012101989047682802D045F0C8
:100A5000080505E045F400656269012101989047A9
:100A6000C4E9015765283DD019DC58287AD00CDC40
:100A7000452837D004DC252826D0412831D131E063
:100A800046282FD047282CD12CE05B2877D061282E
:100A900028D063287CD0642823D15AE0D0E06F2886
:100AA00048D008DC66281DD067281BD0692821D0D3
:100AB0006E2816D127E0702845D0732868D0752895
:100AC00047D078280DD14DE0A1690B98884705469D
:100AD00025283FF469AFE1690B9888476D1C3FF406
:100AE0006AAFB3E023466A466FF001000B99AFF39B
:100AF00000809EE045F040006060A80723464FF06C
:100B0000000236D43EE0E8077FF447AF2068011DBD
:100B100021600068290501D506701BE7290701D56A
:100B2000068017E7A90703D5F117C0E9006111E7AF
:100B300006600FE745F040006060A80723464FF0CD
:100B4000080216D41EE040F60E0125EA010060609E
:100B500016E045F040006060A80723464FF00A0207
:100B600007D40FE045F040006060A80708D5234691
:100B700010226FF001000B99AFF3008059E007E0FD
:100B8000234610226FF001000B99FFF735FB50E070
:100B90004FF000094F464B46632802D05B2806D031
:100BA00040E0E80601D40120A06001273AE0626934
:100BB0000121019890475E2805D14FF00109626933
:100BC000494601989047216939B900210A465346A0
:100BD00043F82120491C0829FADBB0B3216969B91F
:100BE000C11700EBD16253110AEB830122F01F02FF
:100BF000821A01200B68904003430B606269012157
:100C0000019890475D28E8D1B9F1000F09D0002084
:100C1000514651F82020D24341F82020401C08289A
:100C2000F7DB02AB224600976FF001000B99FFF74C
:100C300089FB00280CDA401C08D1BBF1000F05D05D
:100C40004FF0FF300DB0BDE8F08FFFE74046F9E709
:100C5000E90701D108F1010806444FF0000B79E6DD
:100C6000CCCCCC0C10B5141E73F1000408DA401C77
:100C700041F1000192185B411A4301D120F00100BB
:100C800010BD2DE9F04D92469B4611B1B1FA81F2AB
:100C900002E0B0FA80F220329046FFF717FE0446D9
:100CA0000F4640EA0A0041EA0B0153465A46084300
:100CB00013D0114653EA010019D0C8F14002504642
:100CC000FFF713FE05460E46504659464246FFF7CB
:100CD000FDFD084305D0012004E020463946BDE86B
:100CE000F08D0020054346EAE0762C4337430A980E
:100CF0006305E40AA0EB08000022FD0A44EA475419
:100D00000A3002D500200146E9E7010510196941C2
:100D1000DDE9084500196941BDE8F04DA2E7000092
:100D20007F2801D9002208E0064A02EB5002C007E2
:100D3000127800D1120902F00F0201209040084001
:100D4000704700008436000810B504462CB9002016
:100D50000E4988710E49C8700FE0012C03D108209C
:100D60000A49487104E0022C02D10C20074948715D
:100D70000120064988710649C87006480470034876
:100D800000F086F8024800F0E1FB10BD20000020D2
:100D9000280000201D00002000BFFEE7704700B5BE
:100DA000034603E04FF47A7000F005F8181EA3F133
:100DB0000103F7D100BD00EBC001C9004FF0E022F4
:100DC0005161002191610521116100BF4FF0E021C7
:100DD000096901F480310029F8D004214FF0E022A4
:100DE0001161704710B5102000F03EF870B318483C
:100DF000007801280AD117480078012802D1002084
:100E00001549088002201249087018E0104800783F
:100E1000022814D10F480078012806D10E48008816
:100E200040F400400C49088006E00A480078022897
:100E300002D10120074908700120054908700448C3
:100E40000078FFF781FF102000F008F810BD0000C7
:100E50001D0000201C0000205000002001490860F7
:100E60007047000014040140014600200022074B97
:100E70001B6803EA0102054B14331B680B4013B1D6
:100E80000AB1012000E0002070470000000401408A
:100E9000002123498279002A3AD00A461268036861
:100EA0009A430B461A600A1D126803689A430B1D89
:100EB0001A60027911440A6803681A430A60184AE2
:100EC0000832126803689A43154B08331A601A1DDA
:100ED000126803689A43124B0C331A604279102A45
:100EE0000ED11A1F126803681A430D4B08331A609B
:100EF0001A1D126803681A43094B0C331A600DE07F
:100F00000749427911440A6803681A430A6005E0F8
:100F1000027911440A6803689A430A607047000026
:100F20000004014030B500228B071C0F0F2303FA89
:100F300004F20B4B8C1053F824309343084C8D1063
:100F400044F8253023468C1053F824308C07240FA6
:100F500000FA04F42343024C8D1044F8253030BDD0
:100F6000080001402DE9F04102460025002600203E
:100F700000230024002791F803C00CF00F0591F81E
:100F800003C00CF0100CBCF1000F03D091F802C0AC
:100F90004CEA050591F800C0BCF1000F31D014688F
:100FA00000202BE04FF0010C0CFA00F3B1F800C068
:100FB0000CEA03069E4220D183004FF00F0C0CFA7E
:100FC00003F7BC4305FA03FC4CEA040491F803C0A0
:100FD000BCF1280F06D14FF0010C0CFA00FCC2F84E
:100FE00014C00AE091F803C0BCF1480F05D14FF0DE
:100FF000010C0CFA00FCC2F810C0401C0828D1D328
:101000001460B1F800C0BCF1FF0F34DD546800205B
:101010002EE000F1080C4FF0010808FA0CF3B1F8CB
:1010200000C00CEA03069E4221D183004FF00F0C52
:101030000CFA03F7BC4305FA03FC4CEA040491F8EC
:1010400003C0BCF1280F05D100F1080C08FA0CF818
:10105000C2F8148091F803C0BCF1480F07D100F129
:10106000080C4FF0010808FA0CF8C2F81080401C78
:101070000828CED35460BDE8F0810000F0B50A46E0
:10108000002300240021002500F00046B6F1004FA7
:1010900002D11D4EF16901E01B4E7168C0F303459A
:1010A00083B200F44016B6F5401F08D121F07061FC
:1010B000154E766826F07066134F7E6012E000F4DD
:1010C0008016B6F5801F06D1032606FA05F4A14363
:1010D00041F0706106E0460D360103FA06F6B143B1
:1010E00041F0706122B1460D360103FA06F6314334
:1010F00000F00046B6F1004F02D1034EF16101E06D
:10110000014E7160F0BD0000000001400AB10161B4
:1011100000E041617047000005480078012804D1D3
:10112000002003490870012070470020FCE7000000
:101130002C00002070B5044600250FE05CB121466C
:10114000084801F050F900BF8021064801F070F80E
:101150000028F9D000E070BD681CC5B2032DEDDB9E
:1011600000BFF8E70044004070B50446002510E0D9
:10117000605D68B1615D074801F035F900BF80210D
:10118000044801F055F80028F9D0681CC5B200E009
:1011900070BDEDE70044004000BFFEE708B5012147
:1011A000102000F0BBFB10208DF803004002ADF8CA
:1011B000000003208DF8020069460248FFF7D2FEC6
:1011C00008BD00000010014038B5002401250121B0
:1011D000042000F0A3FB0121084600F09FFB012141
:1011E0003348FFF74BFFE803ADF8000010208DF8FF
:1011F000030003208DF8020069462E48FFF7B2FE77
:101200001020ADF8000028208DF8030003208DF891
:10121000020069462748FFF7A5FE04210020FFF7DA
:1012200081FE1020244908600020087108204871C0
:10123000002088710846FFF72BFE0A201F4908701E
:1012400002204870032088700020C870084600F013
:101250007DF900201A4908601A49C1F8100103E01D
:101260004FF4FA70FFF79BFD1548AC380068002872
:10127000F6D14FF4E13001F08DFE012010490860F5
:101280002820FFF78CFD032407E046220EA10FA0C3
:1012900001F080FD08B9002504E0201EA4F1010141
:1012A000CCB2F2D100BF04B90125284638BD0000F8
:1012B000000230000008014020000020280000202B
:1012C000BC012142000021424F4B0000415400006C
:1012D00000200949098801F4004159B106490988EB
:1012E000C1F30E000021054A1154034A1180012167
:1012F000034A117070470000500000206800002071
:101300002C00002010B54FF4E13001F043FE012025
:1013100001F0A4FE00BF2B4800680028FBD101208B
:101320002849AC3108602820FFF739FD0020264904
:101330000870C82225A126A001F02CFD27A001F0ED
:1013400059F8C82221A12AA001F024FD2BA001F008
:1013500051F8C8221DA12EA001F01CFD2FA001F004
:1013600049F8C82219A132A001F014FD34A001F0FF
:1013700041F8C82215A138A001F00CFD39A001F0F8
:1013800039F8C82211A13CA001F004FD3DA001F0F4
:1013900031F800204049C1F8BC012820FFF7FFFCCC
:1013A00000BF084800680028FBD13C4908800120A4
:1013B000054908704FF4E13001F0ECFD0120FFF722
:1013C000C3FC10BD100121421C0000204F4B000047
:1013D00041542B43574D4F44453D30000D0A415475
:1013E0002B43574D4F44453D3020204F4B0D0A00B5
:1013F00041542B544D4F44453D3000000D0A41549B
:101400002B544D4F44453D3020204F4B0D0A0000DA
:1014100041542B54504F5745523D33000D0A41540F
:101420002B54504F5745523D3320204F4B0D0A004F
:1014300041542B574C524154453D32342C35000019
:101440000D0A41542B574C524154453D32342C35F2
:1014500020204F4B0D0A000041542B574C54494D4E
:10146000453D30000D0A41542B574C54494D453DE4
:101470003020204F4B0D0A0041542B554152543D12
:10148000372C30000D0A41542B554152543D372C16
:101490003020204F4B0D0A00000021425000002058
:1014A00000BFFEE700B587B0012144F2040000F060
:1014B00035FA4FF40070ADF8180018208DF81B00B5
:1014C00003208DF81A0006A91D48FFF74BFD4FF4C5
:1014D0008060ADF8180004208DF81B0006A918489C
:1014E000FFF740FD4FF4E13002900020ADF814000A
:1014F0000C20ADF812000020ADF81000ADF80E0081
:10150000ADF80C0002A90F4800F0EEFE012240F2F7
:1015100025510C4800F0C3FE25208DF8040003205F
:101520008DF805008DF8060001208DF8070001A850
:1015300000F00CF80121034800F01FFE07B000BDC9
:1015400000080140003801407047000070B50021DC
:1015500000230F22C47804B3154C246804F4E0641B
:10156000C4F5E064210AC1F10403CA40447804FAD6
:1015700003F184781440214309010E4C0678A155EB
:10158000047804F01F050124AC4005786D11AD000E
:1015900005F1E025C5F8004109E0047804F01F05D5
:1015A0000124AC40044D0678761145F8264070BD04
:1015B0000CED00E000E400E080E100E002490143BE
:1015C000024A1160704700000000FA050CED00E0CF
:1015D00070B500240EE00021204600F0F0F8002550
:1015E00004E0002000F068F9681CC5B2802DF8DB2B
:1015F000601CC4B2082CEEDB70BD000008B50121F0
:10160000082000F08BF914208DF8030003208DF8DA
:1016100002004FF48070ADF8000069460A48FFF7F9
:10162000A1FC4FF40070ADF8000069460648FFF7D2
:1016300099FC012211020448FFF768FD01225102C2
:101640000148FFF763FD08BD000C014070B5054679
:10165000002415E08020204100EA05024FF40071CB
:101660000E48FFF753FD012211020C48FFF74EFD13
:1016700000224FF480710948FFF748FD601CC4B296
:10168000082CE7DB012211020448FFF73FFD00228E
:101690004FF480710148FFF739FD70BD000C014027
:1016A00010B5012251020A48FFF730FD0122110254
:1016B0000748FFF72BFD00224FF400710448FFF7A5
:1016C00025FD00224FF480710148FFF71FFD10BD7A
:1016D000000C014010B500224FF400710648FFF7DE
:1016E00015FD012211020448FFF710FD01225102ED
:1016F0000148FFF70BFD10BD000C014070B5002440
:1017000006E0002500E06D1CB5F57A7FFBD3641C74
:10171000B4F57A7FF5D3FFF771FFAE2000F0BCF887
:10172000D52000F0B9F8802000F0B6F8A82000F02D
:10173000B3F83F2000F0B0F8D32000F0ADF800205F
:1017400000F0AAF8402000F0A7F8A12000F0A4F8CB
:10175000C82000F0A1F8DA2000F09EF8122000F076
:101760009BF8812000F098F8CF2000F095F8D92060
:1017700000F092F8F12000F08FF8DB2000F08CF8F8
:10178000302000F089F8A42000F086F8A62000F0B0
:1017900083F88D2000F080F8142000F07DF8AF2051
:1017A00000F07AF8FFF714FF70BD10B50246012073
:1017B00000E050430B1EA1F10101FAD110BD70B53C
:1017C00005460C4645F0B00000F066F8102141EAED
:1017D000141000F061F804F00F0000F05DF870BD27
:1017E0002DE9F04105460E461746721ED206110E2F
:1017F0006A1E5206100EFFF7E2FF002409E0A7F16F
:101800002001134A02EB0111085D00F055F8601C3D
:10181000C4B2082CF3DB721ED206110E6A1E01231D
:1018200003EB4202D0B2FFF7CAFF00240BE0A7F19E
:101830002001074A02EB011204F10801505C00F09C
:101840003BF8601CC4B2082CF1DBBDE8F08100005D
:10185000943000082DE9F04780460E4617461D4695
:10186000002415E0281B411E0A20FFF79EFFB7FB4E
:10187000F0F00A21B0FBF1F201FB120000F1300997
:101880003019C1B24A464046FFF7AAFF601CC4B2F5
:10189000AC42E7DBBDE8F08710B50446FFF700FF78
:1018A0007820FFF7D3FE0020FFF7D0FE2046FFF799
:1018B000CDFEFFF70FFF10BD10B50446FFF7F0FE99
:1018C0007820FFF7C3FE4020FFF7C0FE2046FFF759
:1018D000BDFEFFF7FFFE10BD7047000029B1064AAC
:1018E000D2690243044BDA6104E0034AD2698243BD
:1018F000014BDA61704700000010024029B1064A2E
:1019000012690243044B1A6104E0034A12698243DC
:10191000014B1A61704700000010024029B1064ACD
:1019200092690243044B9A6104E0034A926982433C
:10193000014B9A61704700000010024029B1064A2D
:10194000D2680243044BDA6004E0034AD26882435F
:10195000014BDA60704700000010024030B50021F2
:101960000022002400232D4D6D6805F00C0121B1EB
:10197000042905D0082923D105E0294D056022E07E
:10198000274D05601FE0254D6D6805F47012234D4D
:101990006D6805F48034022505EB92421CB9214D97
:1019A000554305600BE01D4D6D6805F400351DB114
:1019B0001C4D5543056002E0194D5543056002E09A
:1019C000174D056000BF00BF144D6D6805F0F001B4
:1019D0000909154D6B5C0568DD4045600F4D6D686C
:1019E00005F4E061090A104D6B5C4568DD408560D7
:1019F0000A4D6D6805F46051C90A0B4D6B5C456872
:101A0000DD40C560054D6D6805F44041890B074D0B
:101A10006B5CC568B5FBF3F5056130BD0010024095
:101A200000127A0000093D00000000201000002094
:101A30007047000010B5C4B04FF4FA70FFF7AFF96B
:101A400000F00AF901287DD17748007801280CD1EF
:101A50007548C07800047449897800EB0120724908
:101A6000497808447149086020E06F4800780228EE
:101A70000CD16D48C07800046B49897800EB0120D7
:101A80006949497808446A4908600FE06648007867
:101A900003280BD16448C07800046349897800EBBF
:101AA0000120614949780844624908605E484078ED
:101AB000012804D15C4840785F49087007E05A4823
:101AC0004078022803D1584840785B49087056484E
:101AD0004078032804D1544840785849087007E0FA
:101AE00051484078042803D14F4840785349087042
:101AF0004D484078052804D14B484078504908703B
:101B000007E049484078062803D1474840784C49C7
:101B1000087046480088000A4A49487043480078DF
:101B2000887043480088000AC870414800780871EE
:101B300040480088000A48713E48007888713E4855
:101B4000007800E04CE00012C8713B480078087251
:101B50003A4800780012487238480078887238484D
:101B600000780012C8723648007808734FF480710C
:101B700004A8FEF7DEFA3348007B3249C97A00EB4D
:101B800001203049897A2F4A527A01EB02212D4AED
:101B9000127A2C4BDB7902EB03222A4B9B79294CDE
:101BA000647903EB0423CDE90032CDE90210254826
:101BB00000792449C97800EB012322488078214923
:101BC000497800EB0122204904A800F023FC04A975
:101BD0001EA001F0B7F904A91DA000F00BFC00BF86
:101BE000184880781749497800EB01220423012125
:101BF0000220FFF72FFE134800791249C97800EB45
:101C00000122042301210320FFF724FE0D488079DF
:101C10000C49497900EB0122042301211846FFF702
:101C200019FE44B010BD0000560000204000002006
:101C300044000020480000204C0000204D000020FF
:101C40004E00002030000020C4360008257300003C
:101C500025730D0A0000000005480078012804D112
:101C6000002003490870012070470020FCE70000B5
:101C70005B00002000B587B001214804FFF72EFE6D
:101C800001210420FFF74AFE18208DF81B000420D4
:101C9000ADF8180003208DF81A0006A92048FFF7B8
:101CA00061F948208DF81B000820ADF818000320CA
:101CB0008DF81A0006A91A48FFF754F94FF4165088
:101CC00002900020ADF814000C20ADF812000020A6
:101CD000ADF81000ADF80E00ADF80C0002A91148E7
:101CE00000F002FB012240F225510E4800F0D7FA25
:101CF0004FF4A060FFF762FC26208DF8040001205D
:101D00008DF807008DF805008DF8060001A8FFF793
:101D10001DFC0121034800F030FA07B000BD0000AF
:101D2000000801400044004010B500F001F810BD6B
:101D30000CB50020019000903348006840F48030DA
:101D40003149086000BF3048006800F4003000905E
:101D50000198401C0190009818B90198B0F5A06F47
:101D6000F1D12948006800F4003010B10120009042
:101D700001E0002000900098012843D1234800682A
:101D800040F01000214908600846006820F0030078
:101D900008600846006840F0020008601A48406881
:101DA000194948600846406848600846406840F461
:101DB000806048600846406820F47C10486008460F
:101DC000406840F4E81048600846006840F08070C1
:101DD000086000BF0C48006800F000700028F9D0CF
:101DE0000948406820F003000749486008464068F9
:101DF00040F00200486000BF0348406800F00C005B
:101E00000828F9D10CBD000000100240002002405B
:101E10007047000010B51348006840F001001149F8
:101E2000086008464068104908400E494860084666
:101E300000680E4908400B4908600846006820F415
:101E4000802008600846406820F4FE0048604FF497
:101E50001F008860FFF768FF4FF0006004490860CA
:101E600010BD0000001002400000FFF8FFFFF6FE6A
:101E700008ED00E010B50121880700F068F850B1C6
:101E800005480078642802DD00200349087001211C
:101E9000880700F04DF810BD4F00002010B501215B
:101EA000094800F054F868B10121074800F040F8F3
:101EB0000648008840F40040044908800021024898
:101EC00000F039F810BD0000000400405000002070
:101ED0007FB505460C4601210220FFF7FFFCADF857
:101EE0000850ADF804400020ADF80A00ADF8060037
:101EF00001A90E4800F048F8012211460B4800F0F5
:101F000037F81D208DF8000000208DF80100022018
:101F10008DF8020001208DF803006846FFF716FBDC
:101F20000121024800F007F87FBD000000040040D6
:101F3000CA430282704721B1028842F00102028046
:101F400004E002884FF6FE731A400280704730B5F5
:101F50000246002000230024158A05EA0103958922
:101F600005EA010413B10CB1012000E0002030BDEE
:101F70001AB183890B43838102E083898B43838178
:101F80007047818470470000002202881D4B9842F0
:101F90000ED01D4B98420BD0B0F1804F08D01B4B98
:101FA000984205D01A4B984202D01A4B984204D15D
:101FB0004FF68F731A404B881A43174B984207D03D
:101FC000164B984204D04FF6FF431A40CB881A4371
:101FD00002808B8883850B8803850A4B98420BD03F
:101FE000094B984208D00E4B984205D00D4B9842B1
:101FF00002D00D4B984201D10B7A038601238382D4
:1020000070470000002C01400034014000040040F3
:1020100000080040000C0040001000400014004088
:1020200000400140004401400048014010B540F22A
:102030002551064800F009F918B1044800F0C0F92C
:10204000C4B22146014800F0C0F910BD003801407B
:1020500010B540F225511E4800F0F7F8012836D19E
:102060001B4800F0ADF9C4B21A48007840B9FF2C03
:1020700027D101201749087000201749087020E077
:1020800014480078012810D11448134909784454A1
:1020900011480078401C104908700846007805284F
:1020A0000FDB02200B4908700BE00A480078022879
:1020B00007D1FE2C05D100200649087001200849EF
:1020C000087040F22551024800F048F800BF10BDEA
:1020D000004400405C0000205D000020560000200D
:1020E0005B00002010B540F22551174800F0ADF814
:1020F00010B3154800F064F9C4B21448008800F425
:102100000040C8B911480088B0F5806F15DA104852
:10211000007850B900210F48FFF733FF0B480088C3
:1021200018B901210B48FFF706FF08490888411C30
:10213000064A118008490C5405E00448008840F420
:1021400000400249088010BD0048004050000020B7
:102150001C000020001400406800002010B5002280
:10216000002340F66A14A14200D100BF0A120124E4
:102170009440A3B2DC43048010BD21B1828942F4B3
:102180000052828104E082894DF6FF731A408281F9
:102190007047000010B504462048844209D101214F
:1021A0008803FFF7CBFB00214FF48040FFF7C6FB0D
:1021B00032E01B48844209D101214804FFF79EFB0D
:1021C00000214FF40030FFF799FB25E015488442C9
:1021D00009D101218804FFF791FB00214FF48020F1
:1021E000FFF78CFB18E01048844209D10121C80494
:1021F000FFF784FB00214FF40020FFF77FFB0BE08B
:102200000A48844208D101210805FFF777FB002125
:102210004FF48010FFF772FB10BD00000038014042
:102220000044004000480040004C00400050004086
:1022300002460020B1F5007F00D100BF13880B409B
:102240000BB1012000E00020704770B50246002469
:1022500000230025002040F66A16B14200D100BFDD
:10226000C1F3421501F01F03012606FA03F3012D05
:1022700002D19689334006E0022D02D1168A3340FE
:1022800001E0968A33400C12012606FA04F41688FF
:10229000344013B10CB1012000E0002070BDF0B556
:1022A0000346002400260025002040F66A17B942A4
:1022B00000D100BF1846C1F3421401F01F060127E8
:1022C00007FA06F5012C01D10C3004E0022C01D1F3
:1022D000103000E014301AB107682F43076002E0A5
:1022E0000768AF430760F0BD2DE9F04786B00546AB
:1022F0000E460024A24600BFA1460027B08900B1C7
:1023000000BF2F462C8A4CF6FF700440F08804432F
:102310002C82AC894EF6F3100440B0883189084312
:10232000718908430443AC81AC8A4FF6FF400440F6
:10233000B0890443AC8201A8FFF710FB1F48874215
:1023400002D1DDF810A001E0DDF80CA0A88900F4AE
:10235000004040B10AEBCA0000EB0A1031684900A6
:10236000B0FBF1F807E00AEBCA0000EB0A10316895
:102370008900B0FBF1F86420B8FBF0F004012009FB
:10238000642101FB1089A88900F4004040B132208B
:1023900000EBC900B0FBF1F000F00700044308E0D7
:1023A000322000EB09106421B0FBF1F000F00F00C7
:1023B00004432C8106B0BDE8F087000000380140DE
:1023C00001468888C0F30800704770B504460D4682
:1023D000C5F30800A08000BF80212046FFF728FF3A
:1023E0000028F9D070BDC1F308028280704700BF99
:1023F000FEE700000FB4054B10B503A9044A02988C
:1024000000F000F910BC5DF814FB00003D2D000841
:10241000640000200FB4084B10B504A902AA039869
:1024200000F0F0F8044602A9002000F082FC2046EB
:1024300010BC5DF814FB0000332D000837B51446BE
:102440000846064B6A46214600F0DCF80446694619
:10245000002000F06EFC20463EBD0000332D000839
:1024600002E008C8121F08C1002AFAD1704770475D
:10247000002001E001C1121F002AFBD170470000BB
:102480002DE9FF5F82B00021DDE90430020DDDF8A7
:1024900040B0034318D044F61050A2F2FF3242433A
:1024A0001514119801281FD0A5EB0B00401C5FEA02
:1024B000000A4FF000064E4FDFF83891B046504604
:1024C00015D5CAF1000413E0119801244AA301288C
:1024D00001D16FEA0B010298119AC0E90031C0E9FD
:1024E000024206B0BDE8F09FCBF10000DFE70446F2
:1024F0000021404A491842EB0450CDE9001012E097
:10250000E00707D032463B4640464946FEF7BBF857
:102510008046894632463B4610461946FEF7B3F8D8
:1025200006460F466410002CEAD1DDE90401DDE91E
:102530000023BAF1000F06DAFEF7A5F842464B4633
:10254000FEF7A1F805E0FEF710F942464B46FEF70C
:102550000CF904460E460022284BFEF78DF903D8ED
:102560004FF0FF30014607E00022254B2046314660
:10257000FDF7E2FFFEF768F9102409E0002C0ADB02
:102580000A220023FDF764FF039B30321A55641EB4
:1025900050EA0102F2D1641C039AC4F111031444FD
:1025A000119A012A03D0012208430DD10AE0084301
:1025B00004D000204FF0110B119072E7A3EB0B0534
:1025C0006D1E0DE05B4504DD4FF0000205F10105D5
:1025D00004E003DA4FF00002A5F10105002AECD077
:1025E00002981199C0E90231C0E9004579E700007D
:1025F000000014400000F03F300000000000F043F5
:102600000000E03F2DE9FF4F95B09B468946064606
:1026100000250FE2252877D100242746F84A01211A
:10262000059400E0044316F8013F203B01FA03F053
:102630001042F7D130782A2811D06FF02F0330786C
:10264000A0F13002092A16D8059A44F0020402EBE0
:10265000820203EB42021044761C0590EFE759F822
:10266000042B0592002A03DA504244F400540590EA
:1026700044F00204761C30782E2816D116F8010F8B
:1026800044F004042A280DD06FF02F023078A0F116
:102690003003092B09D807EB870302EB4303C71864
:1026A000761CF3E759F8047B761C30786C280FD041
:1026B00006DC4C2817D068280DD06A2814D104E015
:1026C000742810D07A280FD10DE044F400140AE0E9
:1026D00044F4801401E044F440147278824202D140
:1026E00004F58014761C761C307866280BD013DC39
:1026F000582877D009DC002875D04528F6D0462820
:10270000F4D047281AD19DE118E0632835D0642819
:1027100079D0652812D195E1702873D008DC67283C
:10272000F1D069286FD06E280DD06F2806D1B5E0A2
:1027300073282CD0752875D0782874D05A461799EC
:1027400090476D1C75E1C4F30250022809D003289C
:102750000DD0D9F8001004280DD00D6009F104093E
:1027600067E1D9F80010EA17C1E90052F6E7D9F895
:1027700000100D80F2E70D70F0E719F8041B8DF8DA
:10278000001000208DF80100EA46012003E059F80E
:1027900004AB4FF0FF3061074FF0000102D40DE0B1
:1027A00008F101018846B9420FDA8045F8DB1AF8D2
:1027B00008100029F4D108E008F10101884681429F
:1027C000FADB1AF808100029F6D105985B46A0EB51
:1027D000080721463846179A00F094FA284400EB7F
:1027E000080507E04DE029E10DE01AF8010B5A4613
:1027F00017999047B8F10108F7D25B462146384651
:10280000179A13E142E00A220092C4F302524FF0F9
:10281000000A022A08D059F804CB032A4FEAEC71C7
:102820000AD00DE029E02AE009F1070121F00702B2
:10283000F2E802C1914609E00FFA8CFC4FEAEC7114
:10284000042A03D14FFA8CFC4FEAEC71002907DA15
:102850000A460021DCF1000C61EB02012D2202E0AE
:10286000220504D52B228DF80420012203E0E20783
:1028700001D02022F7E7904659E00A2102E0102219
:102880000DE010214FF0000A00910BE010224FF0F4
:10289000000A44F004040827009203E008224FF0E5
:1028A000000A0092C4F30252022A05D059F804CB60
:1028B0000021032A08D009E009F1070121F00702ED
:1028C000F2E802C1914605E01FFA8CFC042A01D10E
:1028D0000CF0FF0C4FF00008220728D5702806D016
:1028E000009B83F0100353EA0A0305D00EE0402258
:1028F0008DF80420012208E05CEA010206D03022B3
:102900008DF804208DF8050002229046009B83F08C
:10291000080353EA0A030AD15CEA010201D1620703
:1029200005D530228DF804204FF001087F1E58286D
:1029300004D034A003900EA802900DE036A0F9E771
:1029400053466046009AFDF783FD84460398825CF7
:102950000298401E029002705CEA0100F0D10298D9
:1029600006A9081A00F1200A600702D524F4803471
:1029700000E00127574502DDA7EB0A0000E0002038
:1029800000EB0A01009005984144401A0590E003CD
:1029900006D45B462146179A059800F0B3F9054422
:1029A000002706E001A85A46C05D179990476D1CA4
:1029B0007F1C4745F6DBE0030CD55B462146179AA2
:1029C000059800F09FF9054404E030205A46179915
:1029D00090476D1C0099481E00900029F5DC08E026
:1029E000029802995A460078491C0291179990471B
:1029F0006D1CBAF10001AAF1010AF1DC65E10000E9
:102A000009280100303132333435363738396162C4
:102A10006364656600000000303132333435363788
:102A200038394142434445460000000000F058F95F
:102A30000544761C307800287FF4ECAD19B02846A8
:102A4000BDE8F08F620700D4062709F1070222F0E3
:102A5000070CFCE80223E14603F000485FEA080C9B
:102A600002D00FF2702C0DE05FEA045C02D50FF289
:102A7000682C07E05FEAC47C02D00FF2602C01E012
:102A8000AFF2700C4FF0FF3823F00043CDF850C088
:102A900065280CD006DC452809D046281DD04728DB
:102AA0003DD13DE0662818D067287ED138E000216E
:102AB000112F01DB112000E0781CCDE9000106A9EF
:102AC0000EA8FFF7DDFCDDE90F010E9A039100214E
:102AD000009207F1010A04914DE04FF00040009789
:102AE000CDE9011006A90EA8FFF7CAFCDDE90F0227
:102AF00003920E9B11990022DDF80CA00093049222
:102B000011B9791C00EB010AB7EB0A0004D4C0F13B
:102B1000FF3007F1010A0490AAEB0700019044E09E
:102B2000012F00DA01270021112F01DD112000E023
:102B30003846CDE9000106A90EA8FFF7A1FCDDE9A2
:102B40000F010E9A0391002104910092BA462107C9
:102B50000CD40399514500DA8A46BAF1010F05DD1C
:102B6000009AAAF10101515C302908D0B84202DA7A
:102B700010F1040F06DA0121CDE9011015E0AAF1E8
:102B80000101E9E7002805DC049901440491AAEB5E
:102B9000000102E0411C514500DD8A460499401ABB
:102BA000401C01904FF000400290200704D401988F
:102BB000504501DBCDF8048000208DF84F000298CD
:102BC0000DF14F07B0F1004F25D02B200E90029849
:102BD0004FF0020800280CDA404202902D200E909F
:102BE00007E00A210298FDF71DFC3031029007F83A
:102BF000011DB8F10001A8F10108F2DC02980028DB
:102C0000EFD1791E0E980870307800F0200040F067
:102C1000450007F8020D12A8C01B00F10708149820
:102C2000007800B1012000EB0A01019801EBE0718E
:102C300005984144401A401E0590E00306D45B46C7
:102C40002146179A059800F05DF80544149800781D
:102C500018B15A46179990476D1CE00324D55B467E
:102C60002146179A059800F04DF805441CE0049899
:102C7000002807DBDDE90301884203DD0098405CA2
:102C8000179901E0179930205A469047049805F1AA
:102C90000105401C04900198401E019004D12E2093
:102CA0005A46179990476D1CBAF10001AAF1010A22
:102CB000DDDC05E017F8010B5A46179990476D1CAB
:102CC000B8F10001A8F10108F4DC5B462146179A2F
:102CD0000598ABE62D0000002B000000200000004E
:102CE0002DE9F041044600251E461746880404D409
:102CF00005E039462020B0476D1C641EF9D52846F2
:102D0000BDE8F0812DE9F041044600251E469046BD
:102D1000C80301D5302700E02027880404D505E04A
:102D200041463846B0476D1C641EF9D52846BDE8BB
:102D3000F0810A68531C0B601070704770B5044630
:102D40000D46E1B20548FFF74EFB00BF8021034866
:102D5000FFF76EFA0028F9D0204670BD0038014018
:102D600070B5044600250948008800F4004058B1B9
:102D7000002006490988C1F30E01054A5054214636
:102D80001046FDF7E1F90546284670BD50000020C9
:102D9000680000202DE9F04104460E461546002744
:102DA000002018490880FF2C0AD800BF1648008868
:102DB00000F040000028F9D01349091D0C8003E001
:102DC000214612A000F0BEF8C6B1BDB10FE00A2046
:102DD000FDF7E5FF0B48008800F4004038B13046AD
:102DE000FFF7BEFF00B106E0002006490880681E1C
:102DF00080B2051EEBD100BF05B901273846BDE8FA
:102E0000F0810000500000200048004025730D0AAA
:102E1000000000009CB0FEF771FCFEF743FB4FF48E
:102E2000A060FEF7CBFBFEF7B9F9FEF723FFFEF734
:102E3000CBF9FEF767FA20A0FFF7DCFA3AE0FEF7DD
:102E4000F9FDFEF745FAFEF767F9012804D17C2267
:102E500019A91C4800F056F81B49199808801B490D
:102E60001A9808801A491B9808801748028819A1E7
:102E70006846FFF7CFFA6846FEF776F9FF20FEF7BF
:102E800059F91248028817A16846FFF7C3FA684645
:102E9000FEF76AF9FF20FEF74DF90D48028815A1EB
:102EA0006846FFF7B7FA6846FEF75EF9FF20FEF7BF
:102EB00041F900BFC3E70000696E6974206F6B0DB4
:102EC0000A00000068000020140000201600002006
:102ED0001800002070616765322E6E302E76616CAE
:102EE0003D25640070616765322E6E312E76616C0F
:102EF0003D25640070616765322E6E322E76616CFE
:102F00003D256400F7B507460C4602A93846FDF793
:102F100035F9054600260BE004EB860206A128469B
:102F2000FDF74EF902A90020FDF728F90546761CA9
:102F3000002DF1D1FEBD0000252A5B5E3D5D3D25E3
:102F4000640000000FB438B505A800900F48009A3F
:102F50000499FFF773FA002000900C48FDF706F97A
:102F600085B200240DE000BF40210948FFF760F959
:102F70000028F9D00548015D0548FFF734FA601CC8
:102F800084B2AC42EFDB38BC5DF814FB680400206F
:102F9000004800401CB5044601210820FEF7BEFC95
:102FA00001218804FEF79AFC2748FFF7F3F84FF455
:102FB0008060ADF8000003208DF8020018208DF825
:102FC000030069462148FDF7CDFF4FF40060ADF8DE
:102FD000000004208DF8030069461C48FDF7C2FF7D
:102FE0001B48046000201A498880C88008818881B5
:102FF0000C2048811448FFF777F901211248FFF7A8
:10300000BCF8012240F225510F48FFF748F927206C
:103010008DF8040002208DF8050003208DF80600CD
:1030200001208DF8070001A8FEF790FA41F61F4134
:103030006320FEF74DFF0020064908800021064866
:10304000FEF779FF1CBD000000480040000C014065
:10305000C0060020500000200004004010B50446C7
:1030600000210A48FFF789F81CB10C200849488163
:1030700002E008200649488105490448FFF734F971
:1030800001210248FFF779F810BD00000048004018
:10309000C00600200000000000000000000000004A
:1030A00000000000000000F80000000000000033F5
:1030B0003000000000100C06100C0600000000009C
:1030C0000000000040C07840C0784000043F040485
:1030D0003F040400007088FC08300000001820FF46
:1030E000211E0000F008F000E018000000211C0381
:1030F0001E211E0000F00888700000001E212324FD
:103100001927211010160E0000000000000000001A
:1031100000000000000000E01804020000000007AA
:103120001820400000020418E000000000402018B1
:1031300007000000404080F0804040000202010F84
:1031400001020200000000F0000000000101011F68
:1031500001010100000000000000000080B07000CC
:10316000000000000000000000000000000101015C
:1031700001010101000000000000000000303000EB
:1031800000000000000000008060180400601806C5
:103190000100000000E010080810E000000F1020FF
:1031A00020100F00001010F8000000000020203F49
:1031B00020200000007008080888700000302824D3
:1031C0002221300000300888884830000018202074
:1031D00020110E000000C02010F800000007042499
:1031E000243F240000F808888808080000192120DE
:1031F00020110E0000E0108888180000000F112038
:1032000020110E0000380808C83808000000003FF0
:10321000000000000070880808887000001C22214F
:1032200021221C0000E010080810E00000003122FC
:1032300022110F00000000C0C0000000000000309C
:1032400030000000000000800000000000008060EE
:10325000000000000000804020100800000102046F
:103260000810200040404040404040000404040456
:103270000404040000081020408000000020100812
:1032800004020100007048080808F0000000003047
:1032900036010000C030C828E810E00007182724D5
:1032A00023140B000000C038E0000000203C230283
:1032B0000227382008F8888888700000203F2020E6
:1032C00020110E00C0300808080838000718202018
:1032D0002010080008F808080810E000203F20200F
:1032E00020100F0008F88888E8081000203F2020F0
:1032F0002320180008F88888E8081000203F2000E4
:1033000003000000C030080808380000071820201B
:10331000221E020008F808000008F808203F2101DA
:1033200001213F20000808F8080800000020203F85
:103330002020000000000808F8080800C0808080F5
:103340007F00000008F888C028180800203F2001EE
:103350002638200008F8080000000000203F202048
:103360002020300008F8F800F8F80800203F003F5F
:10337000003F200008F830C00008F808203F200077
:1033800007183F00E01008080810E0000F10202088
:1033900020100F0008F808080808F000203F21015D
:1033A00001010000E01008080810E0000F182424B4
:1033B00038504F0008F8888888887000203F200027
:1033C000030C3020007088080808380000382021DD
:1033D00021221C00180808F8080818000000203FE7
:1033E0002000000008F808000008F808001F20204E
:1033F00020201F000878880000C83808000007381F
:103400000E010000F80800F80008F800033C07006F
:10341000073C0300081868808068180820302C03D7
:10342000032C30200838C800C83808000000203FAE
:103430002000000010080808C8380800203826219D
:1034400020201800000000FE020202000000007FA1
:1034500040404000000C30C00000000000000001AF
:103460000638C00000020202FE000000004040409A
:103470007F000000000004020202040000000000BF
:10348000000000000000000000000000808080803C
:103490008080808000020204000000000000000024
:1034A00000000000000080808080000000192422BD
:1034B00022223F2008F8008080000000003F1120F9
:1034C00020110E000000008080800000000E1120FE
:1034D00020201100000000808088F800000E1120DC
:1034E00020103F200000808080800000001F2222EA
:1034F00022221300008080F0888888180020203F56
:10350000202000000000808080808000006B949468
:103510009493600008F8008080800000203F210024
:1035200000203F2000809898000000000020203FED
:1035300020200000000000809898000000C08080DB
:10354000807F000008F8000080808000203F240277
:103550002D302000000808F8000000000020203F67
:10356000202000008080808080808000203F20001C
:103570003F20003F8080008080800000203F2100AD
:1035800000203F200000808080800000001F20205D
:1035900020201F00808000808000000080FFA1208C
:1035A00020110E000000008080808000000E11209D
:1035B00020A0FF80808080008080800020203F212C
:1035C00020000100000080808080800000332424DF
:1035D00024241900008080E0808000000000001F8B
:1035E000202000008080000000808000001F20203C
:1035F00020103F20808080000080808000010E30FD
:103600000806010080800080008080800F300C035D
:103610000C300F0000808000808080000020312E60
:103620000E312000808080000080808080818E703C
:103630001806010000808080808080000021302CEE
:103640002221300000000000807C02020000000007
:10365000003F404000000000FF00000000000000AC
:10366000FF0000000002027C800000000040403F9C
:103670000000000000060101020204040000000036
:1036800000000000DDDDDDDDDCBBBBDDDDDDDDDD23
:10369000DDDDDDDD9888888888888888777777778A
:1036A0007788888885555556666666666666666656
:1036B0006668888883333332222222222222222201
:1036C0002228888D415F444154413D25647C425FFE
:1036D000444154413D25647C435F444154413D2570
:1036E000647C415F5377697463683D25647C425F05
:1036F0005377697463683D25647C435F53776974CD
:1037000063683D25640000002837000800000020A1
:10371000680000006024000890370008680000205E
:10372000680A000070240008000000000102030481
:10373000010203040607080902040608000000004D
:103740000000000000000000000000000000000079
:103750000000000000000000010000000000000068
:103760000000000000000000000000000000000059
:103770000000000000000000000000000000000049
:103780000000000000000000000000000000000039
:04000005080000ED02
:00000001FF
