:020000040800F2
:10000000880B002001010008B9220008011A00082D
:10001000691B0008E91100087B340008000000009B
:10002000000000000000000000000000E5270008BC
:100030004D140008000000003F26000819290008A0
:100040001B0100081B0100081B0100081B01000820
:100050001B0100081B0100081B0100081B01000810
:100060001B010008D9140008191500081B0100081D
:100070001B0100081B0100081B0100081B010008F0
:100080001B0100081B0100081B0100081B010008E0
:100090001B0100081B0100081B0100081B010008D0
:1000A0001B0100081D2C00081B0100081B01000893
:1000B0001B0100083D2D0008D12D00081B01000880
:1000C0001B0100081B0100081B0100081B010008A0
:1000D0001B010008B5300008D93000087131000854
:1000E000951400081B0100081B010008DFF80CD064
:1000F00000F07CFD00480047C5400008880B002048
:100100000648804706480047FEE7FEE7FEE7FEE7B1
:10011000FEE7FEE7FEE7FEE7FEE7FEE71D29000833
:10012000ED000008D2B201E000F8012B491EFBD21D
:1001300070470022F6E710B513460A4604461946F2
:10014000FFF7F0FF204610BD421C10F8011B0029EC
:10015000FBD1801A7047000070B50F4D00B92868B8
:10016000002412E00A4602E09E4203D0521C13789B
:10017000002BF9D1DAB2224305D02BB124B10021F2
:1001800000F8011B04E00446401C0678002EE9D16B
:100190002860204670BD0000EC0000200FB400B5C0
:1001A0008DB010A909900B9000914FF0FF300A908C
:1001B00000200C9005480690054807906A4609A85B
:1001C0000F9900F021FC0DB05DF814FB250A000822
:1001D000430A00082DE9FF5F1D464FF0FF3BD5E9BC
:1001E000014691465F464FF00008A9697F1C0198BF
:1001F0008847296A824688470028F6D1BAF1FF3F2E
:100200000CD024F4C064002E19DD600614D5BAF1B8
:100210002B0F09D0BAF12D0F0ED103E0584604B0D0
:10022000BDE8F09F44F48064A9697F1C0198884769
:10023000761E8246002E02DDBAF1300F03D0B9F1EE
:10024000000F26D032E0A969761E44F400747F1CAA
:10025000019888478246002E05DDBAF1780F06D056
:10026000BAF1580F03D0B9F1000F10D01EE0B9F168
:10027000000F02D0B9F1100F18D1A969761E24F42D
:1002800000747F1C019888478246102002E00820F5
:1002900000E00A20814609E008FB0908A969761EEA
:1002A00044F400747F1C019888478246002E05DDC7
:1002B0004946504600F093FB0028EDDAE9690198C1
:1002C0008847A00502D46FF00100A8E7E00725D118
:1002D000600613D5600502D5C8F1000000E0404675
:1002E00029680A1D2A600968220501D5087015E0F1
:1002F000220701D5088011E008600FE02868011D81
:1003000029600068210502D580F8008006E02107F9
:1003100002D5A0F8008001E0C0F8008038467EE7F2
:100320002DE9FF5FD2E901A74FF0000891699946D6
:100330001446DDF838B0464601988847054659EA24
:100340000B0005D009E0A169761C01988847054695
:10035000216A284688470028F5D1681C03D05FEA47
:10036000CA7005D015E04FF0FF3004B0BDE8F09F33
:100370002068011D2160D0F800800AE05FEACA70A1
:1003800001D108F8015BA169761C7F1E019888479E
:100390000546002F1ADD681C18D0B9F1000F0DD0EA
:1003A000E81705EBD060421120F01F0059F8221029
:1003B0002A1A012090400142E0D107E0BBF1000F72
:1003C000DCD1216A284688470028D7D0E169019806
:1003D0008847BBF1000F07D1002E05DD5FEACA7028
:1003E00002D1002188F80010A068B84203DDBBF1FB
:1003F000000F03D017B16FF00100B6E73046B4E745
:1004000080EA010210B502F00043400022D04A0009
:100410001FD0010E01EB1261C0F35600C2F3560269
:1004200040F4000042F40002A0FB022000047F39E7
:10043000140400D0401C50EA124001D44000491E70
:10044000C2B20C0604EBD010401C4008802A02D037
:1004500003E0002010BD20F00100002900DA002098
:10046000184310BD30B480EA010202F0004530F0BC
:10047000004221F0004013D090B1C30DD40DC2F35F
:100480001601C0F31600E41A41F4000140F4000222
:100490007D34914201D3641C00E04900002C02DA53
:1004A00030BC002070474FF400000023914201D37C
:1004B000891A034340084FEA4101F7D151B19142F3
:1004C00002D14FF0004105E002D24FF0010101E0FE
:1004D0006FF0010103EBC450284430BC00F0C2BAF5
:1004E0002DE9FE4F804681EA0300C00F0C460090C4
:1004F00021F0004123F00045B8EB0200A94105D2EC
:100500004046214690461C460B46024623F00040DA
:10051000104347D0270DC7F30A00C3F30A510290D6
:10052000401A019040286BDAC3F3130040F4801B9B
:100530000098924620B10023D2EB030A63EB0B0B29
:1005400001985946C0F14002504600F017FA06469D
:100550000D4650465946019A00F02FFA10EB08005C
:100560006141002487EA115284EAE7731A4340D0BC
:10057000009A62B3019A012A4FEA075215DC001B68
:1005800061EB02014FF0004202EA0752CDE900425E
:10059000001C41F5801132462B4600F0A9FA03B049
:1005A000BDE8F08F40462146F9E7001B61EB0201F0
:1005B000001C41F5801300185B412018A2F50017BC
:1005C00047EB030140EAD570B6196D4111E06D08A3
:1005D0004FEA360645EAC0754FEA0752001B61EB49
:1005E0000201001C41F5801149084FEA3000001952
:1005F000514132462B4603B0BDE8F04F00F069BAD6
:100600000098012240000023D0EB020263EBE0736C
:10061000009821464FEAE074B8EB000061EB04015A
:10062000E9E783F000435BE781F0004158E72DE9FB
:10063000FE4F81EA030404F0004421F000410094DD
:100640004FF0000B23F0004350EA01045ED052EA61
:1006500003045BD0C3F30A54C1F30A552C44A4F23B
:10066000F3340194A0FB0254C1F3130141F480114F
:10067000C3F3130343F4801301FB024400FB034E56
:10068000840A970A44EA815447EA8357A4FB07681F
:1006900002958D0A05FB07854FEA932C04FB0C5449
:1006A0002705029D4FEA065847EA1637B5EB0805BD
:1006B0006EEB070C870E920E47EA811742EA83120F
:1006C000A7FB0201B6EB0B0164EB00042B0D43EA20
:1006D0000C335E1844EB1C50DA465146E7FB02012E
:1006E000C5F313044FEA0B3343EA14534FEA0432C1
:1006F000019C43EA0603A4F10C040294009CCDE99A
:1007000000B400F0F5F903B0BDE8F08F0020014619
:10071000F9E72DE9F04D81EA030404F0004B21F0E4
:10072000004514464FF0000A23F0004150EA05024C
:1007300020D054EA01021DD0C5F30A570246C5F382
:100740001303C1F31300C1F30A5640F4801543F4B8
:100750008013A7EB0608101BD64608F2FD3873EB92
:10076000050002D308F1010801E092185B41B8F1DD
:10077000000F03DA00200146BDE8F08D00204FF4A1
:100780008011064684460EE0171B73EB050705D360
:10079000121B63EB050306434CEA010C49084FEAC0
:1007A000300092185B4150EA0107EDD152EA030094
:1007B00012D082EA040083EA0501084305D0101B29
:1007C000AB4106D20122002306E000224FF0004395
:1007D00002E06FF0010253101AEB06004CEB0851D7
:1007E00010EB0A0041EB0B01BDE8F04D00F071B9D0
:1007F00096230022114600F03EB90EB5C10F80EAE3
:10080000E0700844CA07002140F233438DE80E002F
:100810000A460B4600F06CF903B000BD0EB540F27D
:10082000334102910021CDE900110A460B4600F048
:100830005FF903B000BD20F00040C10DC0F3160009
:1008400040F400007F2901DA00207047962903DC7C
:10085000C1F19601C8407047963988407047C1F38E
:100860000A5210B5C1F3130140F2FF3341F4801175
:100870009A4201DA002010BD40F233439A42A2F2BC
:10088000334203DC524200F088F810BD904010BDA6
:1008900000F0004230F000400AD0C10D01F5607157
:1008A000C0F3160042EA0151C208400711437047E5
:1008B00000200146704701F0004330B421F00041B0
:1008C00050EA010206D00A0DA2F56072C1F31301CD
:1008D000002A02DC30BC00207047440F44EAC10407
:1008E000C100E01830BC00EBC25000F0BBB830B51E
:1008F0000B46014600202022012409E021FA02F5DE
:100900009D4205D303FA02F5491B04FA02F5284477
:10091000151EA2F10102F1DC30BD2DE9F05F0546A4
:10092000002092469B4688460646814640241BE0AE
:10093000284641464746224600F02FF853465A467D
:10094000C01A914110D311461846224600F016F8FD
:100950002D1A67EB01084F4622460120002100F0C6
:100960000DF817EB00094E41201EA4F10104DFDC55
:10097000484631462A464346BDE8F09F202A04DB1C
:10098000203A00FA02F1002070479140C2F12003A2
:1009900020FA03F3194390407047202A04DB203AE1
:1009A00021FA02F00021704721FA02F3D040C2F18F
:1009B00020029140084319467047202A06DBCB17D6
:1009C000203A41FA02F043EAE07306E041FA02F30A
:1009D000D040C2F1200291400843194670473A289E
:1009E00000D2303820F02002412A01D3A2F1370092
:1009F000884201D34FF0FF30704700000268114475
:100A00001378016018467047D16004495161044968
:100A1000116200211161114600F000B9FD090008C2
:100A2000110C0008426842B1016811F8013B23B182
:100A3000521EC0E90012184670470121C160881E8D
:100A4000704742685AB1C368016843B983688B42F2
:100A500005D0491E521CC0E90012002070474FF01B
:100A6000FF3070470029A8BF7047401C490008BFED
:100A700020F00100704710B4B0FA80FC00FA0CF0CE
:100A800050EA010404BF10BC704749B1CCF1200406
:100A900021FA04F411FA0CF118BF01212143084393
:100AA000A3EB0C01CB1D4FEA00614FEA102042BFBF
:100AB000002010BC704700EBC35010440029A4BFB5
:100AC00010BC7047401C490008BF20F0010010BC5A
:100AD000704710B5141E73F1000408DA401C41F190
:100AE000000192185B411A4301D120F0010010BDB2
:100AF0002DE9F04D92469B4611B1B1FA81F202E028
:100B0000B0FA80F220329046FFF738FF04460F46D5
:100B100040EA0A0041EA0B0153465A46084313D003
:100B2000114653EA010019D0C8F140025046FFF7C0
:100B300034FF05460E46504659464246FFF71EFF13
:100B4000084305D0012004E020463946BDE8F08D79
:100B50000020054346EAE0762C4337430A986305B4
:100B6000E40AA0EB08000022FD0A44EA47540A30D8
:100B700002D500200146E9E7010510196941DDE9C8
:100B8000084500196941BDE8F04DA2E7C1F30A52DA
:100B9000C1F3130140F2FF3341F480119A4202DAAB
:100BA00000200146704740F233439A42A2F233429A
:100BB00002DC5242FFF7F1BEFFF7E0BE30B5041E83
:100BC00071F1000404DB4FF00044404264EB01018A
:100BD000141E73F1000405DB1C464FF00043524223
:100BE00063EB0403994208BF904230BD064C074DA9
:100BF00006E0E06840F0010394E8070098471034ED
:100C0000AC42F6D3FFF776FAE84E0008084F00082A
:100C1000C0B24FF4F05100F097B900002DE9F34F46
:100C20008BB04FF0000801F10C000C464FF0010BA7
:100C300046460DF1080A019062690121019890472A
:100C4000051E2DD0252D2CD0216A8847C0B16269A0
:100C5000012101989047216A88470028F7D1411E59
:100C600062690198904700E0761CA1690B9888475B
:100C7000216A88470028F7D1E1690B988847DBE7AC
:100C8000A1690B9888470746A84201D1761CD3E793
:100C9000E1690B9888477F1C02D1B8F1000F6FD033
:100CA00046E1002762693D463946019890472A2867
:100CB00004D162690121019890470125DFF88492EF
:100CC0006269012101989047A0F130010A290AD2F6
:100CD0004F45E5DC07EB870100EB4107303FDFD4F0
:100CE00045F01005ECE7E90601D46FF000476C28E9
:100CF0000AD04C2814D0682815D06A280DD0742842
:100D00001CD07A281AD01DE0626901210198904711
:100D10006C2802D045F0040514E045F002050DE012
:100D200045F020050AE06269012101989047682892
:100D300002D045F0080505E045F40065626901212F
:100D400001989047C4E9015765283DD019DC58281F
:100D50007AD00CDC452837D004DC252826D0412861
:100D600031D131E046282FD047282CD12CE05B2808
:100D700077D0612828D063287CD0642823D15AE01A
:100D8000D0E06F2848D008DC66281DD067281BD02B
:100D9000692821D06E2816D127E0702845D0732805
:100DA00068D0752847D078280DD14DE0A1690B98FF
:100DB0008847054625283FF469AFE1690B988847C5
:100DC0006D1C3FF46AAFB3E023466A466FF0010042
:100DD0000B99AFF300809EE045F040006060A807EB
:100DE00023464FF0000236D43EE0E8077FF447AFD9
:100DF0002068011D21600068290501D506701BE7E8
:100E0000290701D5068017E7A90703D5F117C0E91F
:100E1000006111E706600FE745F040006060A80739
:100E200023464FF0080216D41EE040F60E0125EAD4
:100E30000100606016E045F040006060A8072346AE
:100E40004FF00A0207D40FE045F040006060A807A9
:100E500008D5234610226FF001000B99AFF30080F4
:100E600059E007E0234610226FF001000B99FFF7CD
:100E7000B1F950E04FF000094F464B46632802D0CD
:100E80005B2806D040E0E80601D40120A0600127DD
:100E90003AE062690121019890475E2805D14FF040
:100EA00001096269494601989047216939B90021D1
:100EB0000A46534643F82120491C0829FADBB0B3FF
:100EC000216969B9C11700EBD16253110AEB8301A3
:100ED00022F01F02821A01200B68904003430B602E
:100EE00062690121019890475D28E8D1B9F1000FAE
:100EF00009D00020514651F82020D24341F820204B
:100F0000401C0828F7DB02AB224600976FF0010077
:100F10000B99FFF705FA00280CDA401C08D1BBF149
:100F2000000F05D04FF0FF300DB0BDE8F08FFFE7A8
:100F30004046F9E7E90701D108F1010806444FF0FE
:100F4000000B79E6CCCCCC0C7F2801D9002208E03C
:100F5000064A02EB5002C007127800D1120902F0D3
:100F60000F0201209040084070470000A84E000882
:100F700021B1826842F00102826003E0826822F0BF
:100F8000010282607047014600208A6802F0040274
:100F90000AB1012000E0002070470146C86C80B211
:100FA00070470246002013680B400BB1012000E09F
:100FB00000207047014600208A6802F008020AB14A
:100FC000012000E00020704730B5024600200023D9
:100FD00050680F4C20400D790C6844EA05242043EA
:100FE000506090680B4C2040D1E902542C434D795D
:100FF00044EA450420439060D06A20F470000C7CE1
:10100000641EE4B2234340EA0350D06230BD0000C6
:10101000FFFEF0FFFDF7F1FFF0B504460D4600209E
:101020000021092D11DDE068A5F10A0606EB46074F
:10103000072606FA07F18843A5F10A0606EB4606DD
:1010400003FA06F10843E0600CE0206905EB450770
:10105000072606FA07F1884305EB450603FA06F171
:1010600008432061072A0FDA606B561E06EB8607DD
:101070001F2606FA07F18843561E06EB860605FA78
:1010800006F10843606322E00D2A0FDA206BD61FB9
:1010900006EB86071F2606FA07F18843D61F06EBE4
:1010A000860605FA06F10843206310E0E06AA2F123
:1010B0000D0606EB86071F2606FA07F18843A2F104
:1010C0000D0606EB860605FA06F10843E062F0BD60
:1010D000816841F008018160704721B1826842F463
:1010E000A002826003E0826822F4A002826070475E
:1010F000816841F0040181607047000010B5012152
:101100000648FFF7EAFF00BF02210448FFF749FF46
:101110000028F9D00148FFF740FF10BD002401402E
:1011200000B587B00121480201F0D2FA0121042064
:1011300001F0CEFA4FF4004001F09EFA00208DF845
:101140001B000420ADF8180003208DF81A0006A932
:10115000194800F033FB0523012202211748FFF74D
:101160005BFF0020019004904FF46020039000206A
:101170008DF809008DF8080001208DF8140001A9F0
:101180000E48FFF721FF01210C48FFF7F1FE0B4845
:10119000FFF79EFF00BF0948FFF70CFF0128FAD0B8
:1011A0000648FFF7A5FF00BF0448FFF7ECFE012843
:1011B000FAD007B000BD0000000801400024014043
:1011C0000221014A11707047A40000200521014A44
:1011D00011707047A4000020704700000121014AEF
:1011E00011707047A400002000BFFEE708B5012180
:1011F000042001F06DFA4FF48050ADF8000010208B
:101200008DF8030003208DF802006946044800F0C1
:10121000D5FA4FF48051024800F0AFFB08BD000042
:10122000000801402DE9F05F00F0C6F800F066F814
:10123000CC2000F0D9F8442000F0D6F800F0BCF83B
:1012400000F05CF8CC2000F0CFF8BE2000F0CCF825
:1012500000F0A0F8834600F09DF882464FEA0A208D
:1012600004B244EA0B04002C0DDAE043401CFFF703
:10127000C4FA074600220B4BFFF7D9F90546FFF7E2
:101280001AFB81460BE02046FFF7B7FA074600221B
:10129000044BFFF7CCF90546FFF70DFB81464846A6
:1012A000BDE8F09F0000B03F10B5FFF79FFF00F0D2
:1012B00083F800F023F810BD08B54FF48050ADF866
:1012C000000048208DF803006946024800F076FAD5
:1012D00008BD00000008014008B54FF48050ADF88B
:1012E000000010208DF8030003208DF802006946ED
:1012F000014800F063FA08BD0008014010B5002461
:10130000FFF7DAFF04E0601CC4B2012000F0ABF884
:101310004FF480510F4800F025FB08B1642CF2DB3C
:10132000642C01DB012010BD002404E0601CC4B269
:10133000012000F098F84FF48051064800F012FBAD
:1013400008B9F02CF2DBF02C01DB0120EBE70020E8
:10135000E9E700000008014010B5FFF7BDFF4FF4BA
:1013600080510B4800F007FB0A2000F07CF8FFF7E3
:10137000A3FF4FF48051064800F0F4FA012801D190
:10138000012400E000242D2000F06DF8204610BD5F
:101390000008014070B50026002408E0FFF7DCFFDC
:1013A000054605FA04F03043C6B2601CC4B2082CEE
:1013B000F4DB304670BD000010B5FFF78DFF4FF431
:1013C0008051084800F0D7FA40F2EE2000F04BF8C8
:1013D0004FF48051034800F0D0FA0F2000F043F89A
:1013E00010BD00000008014070B50446FFF774FF0F
:1013F000002526E004F00106641086B14FF4805108
:10140000114800F0B8FA082000F02DF84FF4805190
:101410000D4800F0B2FA3A2000F025F80FE04FF442
:101420008051094800F0A7FA462000F01CF84FF45C
:101430008051054800F0A1FA022000F014F8681C61
:10144000C5B2082DD6DB70BD00080140704700B55D
:10145000034603E04FF47A7000F005F8181EA3F17C
:101460000103F7D100BD00EBC001C9004FF0E0223D
:101470005161002191610521116100BF4FF0E02110
:10148000096901F480310029F8D004214FF0E022ED
:101490001161704710B54FF4804000F063F890B1CF
:1014A0000948007810B9012007490870074800680A
:1014B000401C0649086006480088064908604FF449
:1014C000804000F049F810BDCC000020B40000209E
:1014D000242C0140D800002010B5082000F042F86C
:1014E00088B10948007810B90120074908700748F9
:1014F0000068401C054908600548008805490860E7
:10150000082000F029F810BDCA000020AC0000201F
:10151000242C0140D000002010B5102000F022F84B
:1015200088B10948007810B90120074908700748B8
:101530000068401C054908600548008805490860A6
:10154000102000F009F810BDCB000020B0000020F2
:10155000242C0140D400002001490860704700009D
:1015600014040140014600200022074B1B6803EAD7
:101570000102054B14331B680B4013B10AB1012063
:1015800000E00020704700000004014000212349D2
:101590008279002A3AD00A46126803689A430B46B9
:1015A0001A600A1D126803689A430B1D1A600279BB
:1015B00011440A6803681A430A60184A083212681C
:1015C00003689A43154B08331A601A1D12680368A2
:1015D0009A43124B0C331A604279102A0ED11A1F0B
:1015E000126803681A430D4B08331A601A1D1268FB
:1015F00003681A43094B0C331A600DE0074942791E
:1016000011440A6803681A430A6005E0027911442C
:101610000A6803689A430A607047000000040140AA
:1016200000B587B00121052001F052F801210846DC
:1016300001F02EF80320ADF8180048208DF81B00AB
:1016400006A91D4800F0BAF84FF6FF70ADF810007B
:101650000320ADF80C000020ADF81200ADF80E002C
:1016600003A94FF0804001F0D3FC0020ADF800004A
:10167000ADF802000120ADF804000020ADF806002E
:10168000ADF8080069464FF0804001F033FC0420BB
:10169000ADF800006946000701F02CFC00231A4653
:1016A00003214FF0804001F0EFFB0121880701F09A
:1016B000DFFB07B000BD00000008014030B500228C
:1016C0008B071C0F0F2303FA04F20B4B8C1053F8FB
:1016D00024309343084C8D1044F8253023468C1059
:1016E00053F824308C07240F00FA04F42343024CEF
:1016F0008D1044F8253030BD080001401FB5012190
:10170000092000F0E5FF44F21800ADF80C00482075
:101710008DF80F0003A9274800F050F80121264852
:1017200000F0D8F803210120FFF7C8FF04210120B1
:10173000FFF7C4FF0E210120FFF7C0FF44F218009D
:10174000019000208DF808000C208DF80900012080
:101750008DF80A0001A8FFF719FF09208DF8000095
:1017600000208DF801008DF8020001208DF80300A3
:10177000684600F0A3FD0A208DF8000000208DF8D7
:10178000010001208DF802008DF80300684600F08A
:1017900095FD28208DF8000000208DF80100022022
:1017A0008DF8020001208DF80300684600F086FDE8
:1017B0001FBD0000000C0140000230002DE9F04187
:1017C000024600250026002000230024002791F86F
:1017D00003C00CF00F0591F803C00CF0100CBCF125
:1017E000000F03D091F802C04CEA050591F800C043
:1017F000BCF1000F31D0146800202BE04FF0010C39
:101800000CFA00F3B1F800C00CEA03069E4220D1A6
:1018100083004FF00F0C0CFA03F7BC4305FA03FCEE
:101820004CEA040491F803C0BCF1280F06D14FF034
:10183000010C0CFA00FCC2F814C00AE091F803C0D5
:10184000BCF1480F05D14FF0010C0CFA00FCC2F8B6
:1018500010C0401C0828D1D31460B1F800C0BCF1FE
:10186000FF0F34DD546800202EE000F1080C4FF02B
:10187000010808FA0CF3B1F800C00CEA03069E4216
:1018800021D183004FF00F0C0CFA03F7BC4305FA8B
:1018900003FC4CEA040491F803C0BCF1280F05D105
:1018A00000F1080C08FA0CF8C2F8148091F803C093
:1018B000BCF1480F07D100F1080C4FF0010808FAFD
:1018C0000CF8C2F81080401C0828CED35460BDE844
:1018D000F0810000F0B50A46002300240021002515
:1018E00000F00046B6F1004F02D11D4EF16901E053
:1018F0001B4E7168C0F3034583B200F44016B6F581
:10190000401F08D121F07061154E766826F0706690
:10191000134F7E6012E000F48016B6F5801F06D1EA
:10192000032606FA05F4A14341F0706106E0460D76
:10193000360103FA06F6B14341F0706122B1460D5B
:10194000360103FA06F6314300F00046B6F1004FC7
:1019500002D1034EF16101E0014E7160F0BD000063
:10196000000001400246002093680B400BB10120AB
:1019700000E000207047416170470161704710B579
:101980004FF0FF344FF0804001F09FFA68B14FF004
:1019900080410988C1F3001008B1002400E001244F
:1019A00000214FF08042918400BF204610BD00000E
:1019B00070B50A48047800200849087064B90848DE
:1019C000007848B1FFF7DBFF05460DB9032402E0BC
:1019D000012D00D1042400BF204670BDA4000020CA
:1019E0004C00002005480078012804D1002003495C
:1019F0000870012070470020FCE700002D00002047
:101A000000BFFEE710B540210748FFF7B6FF802171
:101A10000548FFF7B2FF80210348FFF7ACFF4021E4
:101A20000148FFF7A8FF10BD000C014010B5402190
:101A30000548FFF7A2FF80210348FFF79CFF8021A4
:101A40000148FFF79AFF10BD000C014010B540217E
:101A50000348FFF792FF40210148FFF78CFF10BDBC
:101A6000000C01402DE9F04105462C46402111486B
:101A7000FFF781FF002619E0274607F08007802F37
:101A800004D180210B48FFF778FF03E0802109484B
:101A9000FFF771FF6006040E40210648FFF76DFF57
:101AA00040210448FFF767FF701CC6B2082EE3DB35
:101AB000BDE8F081000C014010B50446FFF7A2FF1D
:101AC0007820FFF7CFFFFFF7C1FF0020FFF7CAFF25
:101AD000FFF7BCFF2046FFF7C5FFFFF7B7FFFFF793
:101AE000A5FF10BD10B50446FFF78CFF7820FFF767
:101AF000B9FFFFF7ABFF4020FFF7B4FFFFF7A6FFEA
:101B00002046FFF7AFFFFFF7A1FFFFF78FFF10BDE4
:101B100008B50121042000F0DBFD0820ADF800002D
:101B200048208DF8030069460148FFF747FE08BDCD
:101B30000008014000200949098801F4004159B119
:101B400006490988C1F30E000021054A1154034AD1
:101B500011800121034A117070470000DC00002051
:101B60001C0100202D00002000BFFEE710B504225C
:101B70000021212000F0B4FC05220021312000F0DA
:101B8000AFFC02220021412000F0AAFC0322002128
:101B9000512000F0A5FC102308A20221002000F033
:101BA00025FD102309A20421002000F01FFD1023B1
:101BB00009A20621002000F019FD10BD43686F69DD
:101BC00063655F41202020203C3C000043686F6932
:101BD00063655F420000000043686F6963655F43AF
:101BE0000000000010B504220021212000F078FC44
:101BF00005220021312000F073FC02220021412047
:101C000000F06EFC03220021512000F069FC10233B
:101C100008A20221002000F0E9FC102308A2042100
:101C2000002000F0E3FC102309A20621002000F0B0
:101C3000DDFC10BD43686F6963655F410000000013
:101C400043686F6963655F42202020203C3C0000B0
:101C500043686F6963655F430000000010B50422AC
:101C60000021212000F03CFC05220021312000F061
:101C700037FC02220021412000F032FC0322002127
:101C8000512000F02DFC102308A20221002000F0BA
:101C9000ADFC102308A20421002000F0A7FC1023B3
:101CA00008A20621002000F0A1FC10BD43686F6966
:101CB00063655F410000000043686F6963655F42D0
:101CC0000000000043686F6963655F4320202020A7
:101CD0003C3C00002DE9F04FA7B000221146212026
:101CE00000F0FEFB01220021312000F0F9FB02226E
:101CF0000021412000F0F4FB03220021512000F0DC
:101D0000EFFBFFF78FFA0446FEF795FD8449088044
:101D1000FFF7F4F98349088008460088FEF768FD5C
:101D200081468149FEF79EFB0446FEF7B1FD07465A
:101D30004FF066327D4BFEF77AFC0546FEF7BBFDA1
:101D40007B49086076480088192815DB74490988A2
:101D5000A1F11900FEF751FD8046764A764BFEF759
:101D600066FC06460022754BFEF7BAFB0446FEF7FA
:101D7000A2FD7349086014E069490988C1F119009E
:101D8000FEF73BFD06466B4A6B4BFEF750FC804668
:101D900000226A4BFEF748FC0446FEF78CFD6849BA
:101DA00008606748016862480068FEF729FB6549DA
:101DB000086008460068FEF76BFD04464FF03332BA
:101DC000614BFEF734FCCDE908015E480068FEF780
:101DD0005FFD04460D465B480068FEF759FD8046EE
:101DE0005A4A5B4BFEF723FC064622462B46FEF77B
:101DF0001EFCCDE9040153480068FEF749FD80460A
:101E0000894650480068FEF743FD04460D464D489C
:101E10000068FEF73DFD06464E4A4F4BFEF707FCB5
:101E200022462B46CDE90001FEF701FC82464246E0
:101E30004B46FEF7FCFBCDE90201DDE90423FEF78A
:101E4000F0FBCDE90601DDE90823FEF749FB434A33
:101E5000434BCDE90A01FEF7EAFBCDE90C01FEF7A1
:101E6000FEFC4049088008460088FEF7D7FC06467D
:101E7000304A3D4BFEF74DFC0446FEF7F0FC3B4973
:101E80000880C820FFF7E3FA2548028838A10EA889
:101E900001F006FB10230EAA0221002000F0A6FB91
:101EA0003248028834A10EA801F0FAFA10230EAAD3
:101EB0000421002000F09AFB2A48028830A10EA8D5
:101EC00001F0EEFA10230EAA0621002000F08EFB8E
:101ED0002D4802882DA10EA801F0E2FA10230EAAC7
:101EE0000221462000F082FB2A4802882AA10EA87F
:101EF00001F0D6FA10230EAA0421462000F076FB4A
:101F00002748028827A10EA801F0CAFA10230EAABA
:101F10000621462000F06AFB27B0BDE8F08F0000E4
:101F2000260000203C00002000F07F45666602404D
:101F3000400000207B14AE47E17A943F0000F03F60
:101F4000440000204800002033CB7A40EC51B81EFA
:101F500085FB5F403D0AD7A370AD5040CDCCCCCCC3
:101F6000CCCC004028000020E17AE43F2A00002089
:101F7000543D25640000000045433D2564000000F9
:101F80005444533D2564000014000020413D252E9B
:101F90003464000016000020423D252E3464000009
:101FA00018000020433D252E3464000000B585B0A4
:101FB000102324A20021192000F018FB24480288D5
:101FC00024A1684601F06CFA10236A460321002020
:101FD00000F00CFB23480078042809D11C48008835
:101FE00032282CDB1A48008832381949088026E04C
:101FF0001C48007803280BD11548008841F256315F
:1020000088421CDC1248008832301149088016E0F2
:1020100014480078052812D10D480088124908801C
:10202000102312A206211E2000F0E0FA20211248FF
:10203000FFF7A3FC0648018810A001F021FA05B0C3
:1020400000BD0000534554204D656E7520410000D1
:102050001A000020415F766F6C756D65203D20256C
:102060002E3464004D0000201400002053455420FD
:1020700041204F4B00000000000C014025640D0A78
:102080000000000000B585B0102322A20021192015
:1020900000F0ACFA2248028822A1684601F000FA5A
:1020A00010236A460321002000F0A0FA214800789E
:1020B000042809D11A480088322828DB18480088EB
:1020C00032381749088022E01A48007803280BD1DB
:1020D0001348008841F25631884218DC10480088C5
:1020E00032300F49088012E01248007805280ED1DE
:1020F0000B48008810490880102310A206211E20DA
:1021000000F074FA4FF480710F48FFF736FC05B009
:1021100000BD0000534554204D656E7520420000FF
:102120001C000020425F766F6C756D65203D202598
:102130002E3464004D00002016000020534554202A
:1021400042204F4B00000000000C014000B585B05C
:10215000102322A20021192000F048FA2248028808
:1021600022A1684601F09CF910236A460321002051
:1021700000F03CFA21480078042809D11A48008868
:10218000322828DB1848008832381749088022E0B6
:102190001A48007803280BD11348008841F25631C1
:1021A000884218DC1048008832300F49088012E05D
:1021B0001248007805280ED10B4800881049088085
:1021C000102310A206211E2000F010FA4FF4007117
:1021D0000F48FFF7D2FB05B000BD00005345542067
:1021E0004D656E75204300001E000020435F766F32
:1021F0006C756D65203D20252E3464004D00002057
:10220000180000205345542043204F4B000000008D
:10221000000C014000B587B0012144F2040000F039
:1022200057FA4FF40070ADF8180018208DF81B0015
:1022300003208DF81A0006A91D48FFF7BFFA4FF4D6
:102240008060ADF8180004208DF81B0006A918481E
:10225000FFF7B4FA4FF4E13002900020ADF814001B
:102260000C20ADF812000020ADF81000ADF80E0003
:10227000ADF80C0002A90F4801F07CF8012240F2F1
:1022800025510C4801F051F825208DF80400032059
:102290008DF805008DF8060001208DF8070001A8D3
:1022A00000F00CF80121034800F0ADFF07B000BDBD
:1022B00000080140003801407047000070B500215F
:1022C00000230F22C47804B3154C246804F4E0649E
:1022D000C4F5E064210AC1F10403CA40447804FA59
:1022E00003F184781440214309010E4C0678A1556E
:1022F000047804F01F050124AC4005786D11AD0091
:1023000005F1E025C5F8004109E0047804F01F0557
:102310000124AC40044D0678761145F8264070BD86
:102320000CED00E000E400E080E100E00249014340
:10233000024A1160704700000000FA050CED00E051
:1023400070B5002418E004F1B000002100F06BF932
:102350000021084600F067F90021102000F063F921
:10236000002505E00121002000F05DF9681CC5B2E0
:10237000802DF7DB601CC4B2082CE4DB70BD0000CC
:1023800008B50121082000F0A3F90121082000F080
:102390009FF94020ADF8000010208DF803000320C5
:1023A0008DF8020069464348FFF708FA8020ADF82F
:1023B000000069463F48FFF701FA40213D48FFF71A
:1023C000DCFA80213B48FFF7D8FA6420FFF73FF89A
:1023D0000021AE2000F027F90021084600F023F983
:1023E0000021102000F01FF90021402000F01BF90F
:1023F0000021B02000F017F90021812000F013F92E
:102400000021FF2000F00FF90021A12000F00BF9BE
:102410000021A62000F007F90021A82000F003F910
:1024200000213F2000F0FFF80021C82000F0FBF859
:102430000021D32000F0F7F80021084600F0F3F85F
:102440000021D52000F0EFF80021802000F0EBF80B
:102450000021D82000F0E7F80021052000F0E3F883
:102460000021D92000F0DFF80021F12000F0DBF896
:102470000021DA2000F0D7F80021122000F0D3F874
:102480000021DB2000F0CFF80021302000F0CBF855
:1024900000218D2000F0C7F80021142000F0C3F8BF
:1024A0000021AF2000F0BFF86420FEF7D0FFFFF757
:1024B00047FF08BD000C014070B504460D4605F10C
:1024C000B000002100F0AFF8102141EA1410002103
:1024D00000F0A9F804F00F00002100F0A4F870BD8E
:1024E0002DE9F04180460E4615460027314640460C
:1024F000FFF7E2FF00240AE0124A02EB8511085DB3
:10250000012100F090F8781CC7B2601CC4B2102CF6
:10251000F2DB701CC1B24046FFF7CEFF00240CE096
:102520006900491C074A02EB4111085D012100F0D6
:102530007AF8781CC7B2601CC4B2102CF0DBBDE87E
:10254000F0810000284D00082DE9F04707460E46AF
:102550009046994600250024A8F12000C5B27F2F9F
:1025600002DD0027B01CC6B2B9F1100F24D13146EC
:102570003846FFF7A1FF002408E004EB0511194AD3
:10258000505C012100F04FF8601CC4B2082CF4DB51
:10259000701CC1B23846FFF78FFF002409E004EB3E
:1025A000051108310F4A505C012100F03CF8601C15
:1025B000C4B2082CF3DB12E031463846FFF77CFF4B
:1025C00000240AE005EB4501074A02EB4101085DE2
:1025D000012100F028F8601CC4B2062CF2DBBDE833
:1025E000F087000038470008104500082DE9F04149
:1025F00004460F461546984600260FE0AA5D43465E
:1026000039462046FFF7A0FF04F10800C4B2782C39
:1026100002DD0024B81CC7B2701CC6B2A85D002839
:10262000ECD1BDE8F08170B504460D461DB1E0B2B5
:10263000FFF758FA02E0E0B2FFF73EFA70BD7047CC
:1026400008B50121082000F043F810208DF80300A0
:102650004FF44870ADF8000003208DF80200694681
:102660000448FFF7ABF84FF448710248FFF783F9CD
:1026700008BD0000000C014001460020034A5068DC
:1026800020F44040084350607047000000100240B2
:1026900029B1064AD2690243044BDA6104E0034AD5
:1026A000D2698243014BDA6170470000001002409A
:1026B00029B1064A12690243044B1A6104E0034A35
:1026C00012698243014B1A617047000000100240FA
:1026D00029B1064A92690243044B9A6104E0034A15
:1026E00092698243014B9A617047000000100240DA
:1026F00029B1064AD2680243044BDA6004E0034A77
:10270000D2688243014BDA6070470000001002403B
:1027100030B500210022002400232D4D6D6805F006
:102720000C0121B1042905D0082923D105E0294D48
:10273000056022E0274D05601FE0254D6D6805F41A
:102740007012234D6D6805F48034022505EB92422A
:102750001CB9214D554305600BE01D4D6D6805F416
:1027600000351DB11C4D5543056002E0194D554320
:10277000056002E0174D056000BF00BF144D6D6895
:1027800005F0F0010909154D6B5C0568DD404560F9
:102790000F4D6D6805F4E061090A104D6B5C4568EA
:1027A000DD4085600A4D6D6805F46051C90A0B4D26
:1027B0006B5C4568DD40C560054D6D6805F44041C2
:1027C000890B074D6B5CC568B5FBF3F5056130BD42
:1027D0000010024000127A0000093D0000000020B5
:1027E000100000207047000070B5C2B0084804888F
:1027F00008480588084806882B46224607A102A8F3
:10280000009600F04DFE02A801F0DAFD42B070BD66
:102810002A000020280000202600002045433D25F6
:10282000647C5444533D25647C743D256400000061
:1028300010B500F001F810BD0CB50020019000901B
:102840003348006840F480303149086000BF3048A8
:10285000006800F4003000900198401C019000983E
:1028600018B90198B0F5A06FF1D12948006800F4BB
:10287000003010B10120009001E00020009000988D
:10288000012843D12348006840F010002149086026
:102890000846006820F0030008600846006840F021
:1028A000020008601A4840681949486008464068B4
:1028B00048600846406840F48060486008464068C8
:1028C00020F47C1048600846406840F4E8104860F6
:1028D0000846006840F08070086000BF0C4800683F
:1028E00000F000700028F9D00948406820F003008B
:1028F000074948600846406840F00200486000BF51
:102900000348406800F00C000828F9D10CBD000015
:1029100000100240002002407047000010B513482C
:10292000006840F0010011490860084640681049FD
:1029300008400E494860084600680E4908400B49A7
:1029400008600846006820F4802008600846406857
:1029500020F4FE0048604FF41F008860FFF768FF16
:102960004FF000600449086010BD000000100240F4
:102970000000FFF8FFFFF6FE08ED00E0F0B50C46A2
:10298000154600220021068C4FF6FE773E40068455
:10299000028B018C4FF60C7632407E1C06EA031641
:1029A0002E433243104EB0420ED0104EB0420BD0E8
:1029B000B0F1804F08D00E4EB04205D00D4EB0425F
:1029C00002D00D4EB04206D14FF6FD76314044F0B4
:1029D0000106314305E04FF6F576314044F001063B
:1029E000314302830184F0BD002C014000340140DA
:1029F0000004004000080040000C0040F0B50C4608
:102A00001546002200210026078C4FF6EF7C07EACE
:102A10000C070784028B018C4FF6FF7707EA041638
:102A200040F6FF473A404FF6FF7707EA03373A434D
:102A30004FF6FF7707EA05273A43114FB8420ED009
:102A4000104FB8420BD0B0F1804F08D00E4FB842B3
:102A500005D00E4FB84202D00D4FB84206D14FF606
:102A6000DF77394046F01007394305E04FF65F77CE
:102A7000394044F01007394302830184F0BD00005F
:102A8000002C0140003401400004004000080040D8
:102A9000000C0040F0B50C4615460022002100262F
:102AA000078C4FF6FF6C07EA0C070784828B018CBA
:102AB0004FF6FF7707EA04264FF60C773A404FF6B9
:102AC000FF7707EA03172F433A43114FB8420ED05E
:102AD000104FB8420BD0B0F1804F08D00E4FB84223
:102AE00005D00E4FB84202D00D4FB84206D14FF676
:102AF000FF57394046F48077394305E04FF2FF57DE
:102B0000394044F48077394382830184F0BD00006A
:102B1000002C014000340140000400400008004047
:102B2000000C0040F0B50C4615460022002100269E
:102B3000078C4EF6FF7C07EA0C070784828B018C1A
:102B40004FF6FF7707EA043640F6FF473A404FF664
:102B5000FF7707EA05273A434FF6FF7707EA03377F
:102B60003A43114FB8420ED0104FB8420BD0B0F1DB
:102B7000804F08D00E4FB84205D00E4FB84202D059
:102B80000D4FB84206D14DF6FF77394046F48057D5
:102B9000394305E047F6FF57394044F4805739433D
:102BA00082830184F0BD0000002C0140003401400C
:102BB0000004004000080040000C00401FB5012147
:102BC000C802FFF785FD41F63F10ADF80800002070
:102BD000ADF80400ADF80A00ADF8060001A90E48F2
:102BE00000F016FA012211460B4800F0D9F919201D
:102BF0008DF8000000208DF8010003208DF8020000
:102C000001208DF803006846FFF758FB01210248B8
:102C100000F02EF91FBD0000002C014070B501210D
:102C2000334800F055F9002860D03148243004883A
:102C300030480078E8B130480068201AB0F5FA6FE3
:102C400017D32E48006801F01FFA2D4908602D495E
:102C50002B480068FDF7D4FB0546FDF7ECFD2A493B
:102C600008800846018829A000F00AFC00202149BC
:102C7000087028480078C0B127480068201AB0F5CD
:102C8000FA6F12D32548006801F0FEF92449086064
:102C90001C4923480068FDF7B3FB0546FDF7CBFD53
:102CA0002049088000201B4908701F480078C0B1E7
:102CB0001E480068201AB0F5FA6F12D31C4800684D
:102CC00001F0E2F91B4908600E491A480068FDF757
:102CD00097FB0546FDF7AFFD174908800020124914
:102CE00008700121024800F0C0F800BF70BD00006C
:102CF000002C0140CA000020D0000020AC000020C1
:102D0000B800002000007A44C400002061203D206B
:102D100025640A00CB000020D4000020B000002071
:102D2000BC000020C6000020CC000020D8000020FD
:102D3000B4000020C0000020C800002010B5012110
:102D4000094800F0C5F868B10121074800F08DF886
:102D50000648008840F400400449088000210248E9
:102D600000F086F810BD000000040040DC000020E8
:102D70007FB505460C4601210220FFF789FCADF81E
:102D80000850ADF804400020ADF80A00ADF8060088
:102D900001A90E4800F03CF9012211460B4800F051
:102DA000FFF81D208DF8000000208DF801000220A2
:102DB0008DF8020001208DF803006846FFF77EFAC7
:102DC0000121024800F054F87FBD000000040040DB
:102DD00010B501210A4800F07BF860B1094800787D
:102DE000401C0849087008460078052803DB0020CD
:102DF000087001F03BF90121014800F033F810BDE3
:102E000000080040EA0000207FB505460C4601217D
:102E10000420FFF73DFCADF80850ADF80440002059
:102E2000ADF80A00ADF8060001A90D4800F0F0F871
:102E3000012211460A4800F0B3F81E208DF8000068
:102E400002208DF801008DF8020001208DF80300AA
:102E50006846FFF733FA0121014800F009F87FBD09
:102E600000080040CA4302827047CA43028270478A
:102E700021B1028842F00102028004E002884FF68C
:102E8000FE731A4002807047F0B50C4615461E4688
:102E90000021002200230189028B038C4FF6F87772
:102EA000394021434FF6FC473A4040F201173A437C
:102EB0004FF6DD773B404FF6FF7707EA06172F43C3
:102EC0003B43018102830384F0BD0146888C704737
:102ED00030B50246002000230024158A05EA0103CC
:102EE000958905EA010413B10CB1012000E000202E
:102EF00030BD000070B505460C46244885420ED012
:102F0000234885420BD0B5F1804F08D02148854237
:102F100005D02148854202D02048854200D100E0FA
:102F200000BF208850B92389A28861882846FFF70E
:102F300025FDE188284600F03EF825E02088042899
:102F40000AD12389A28861882846FFF757FDE188C6
:102F5000284600F039F817E0208808280AD123898C
:102F6000A28861882846FFF795FDE188284600F091
:102F700038F809E02389A28861882846FFF7D2FD46
:102F8000E188284600F036F870BD0000002C0140B2
:102F9000003401400004004000080040000C0040E4
:102FA0001AB183890B43838102E083898B43838138
:102FB000704781847047028B4FF6F3731A40028387
:102FC000028B0A4302837047028B4FF2FF331A4091
:102FD0000283028B4FF6FF7303EA01231A43028335
:102FE0007047828B4FF6F3731A408283828B0A43B9
:102FF00082837047828B4FF2FF331A408283828B29
:103000004FF6FF7303EA01231A43828370470000DF
:10301000002202881D4B98420ED01D4B98420BD0C7
:10302000B0F1804F08D01B4B984205D01A4B984204
:1030300002D01A4B984204D14FF68F731A404B8836
:103040001A43174B984207D0164B984204D04FF6BC
:10305000FF431A40CB881A4302808B8883850B88F4
:1030600003850A4B98420BD0094B984208D00E4B6F
:10307000984205D00D4B984202D00D4B984201D199
:103080000B7A03860123838270470000002C0140E5
:10309000003401400004004000080040000C0040E3
:1030A0000010004000140040004001400044014076
:1030B0000048014010B540F22551064800F00BF9D8
:1030C00018B1044800F0C2F9C4B22146014800F02A
:1030D000C2F910BD0038014010B540F225511E481C
:1030E00000F0F9F8012836D11B4800F0AFF9C4B25E
:1030F0001A48007840B9FF2C27D1012017490870E1
:1031000000201749087020E014480078012810D1E9
:10311000144813490978445411480078401C104958
:1031200008700846007805280FDB02200B4908705C
:103130000BE00A480078022807D1FE2C05D10020B8
:103140000649087001200849087040F225510748D7
:1031500000F04AF800BF10BD00440040E800002025
:10316000E9000020E2000020E700002000380140D4
:1031700010B540F22551174800F0ADF810B31548CE
:1031800000F064F9C4B21448008800F40040C8B9E3
:1031900011480088B0F5806F15DA1048007850B9F2
:1031A00000210F48FFF705FF0B48008818B90121DF
:1031B0000B48FFF75DFE08490888411C064A11804C
:1031C00008490C5405E00448008840F400400249D6
:1031D000088010BD00480040DC0000202C000020CA
:1031E000000400401C01002010B50022002340F61E
:1031F0006A14A14200D100BF0A1201249440A3B274
:10320000DC43048010BD21B1828942F400528281E6
:1032100004E082894DF6FF731A40828170470000F6
:1032200010B504462048844209D101218803FFF7E4
:103230005FFA00214FF48040FFF75AFA32E01B4852
:10324000844209D101214804FFF732FA00214FF4EA
:103250000030FFF72DFA25E01548844209D10121FD
:103260008804FFF725FA00214FF48020FFF720FAA9
:1032700018E01048844209D10121C804FFF718FA68
:1032800000214FF40020FFF713FA0BE00A488442B4
:1032900008D101210805FFF70BFA00214FF4801037
:1032A000FFF706FA10BD000000380140004400405E
:1032B00000480040004C0040005000400246002002
:1032C000B1F5007F00D100BF13880B400BB1012086
:1032D00000E00020704770B502460024002300255E
:1032E000002040F66A16B14200D100BFC1F342157A
:1032F00001F01F03012606FA03F3012D02D196897E
:10330000334006E0022D02D1168A334001E0968A4E
:1033100033400C12012606FA04F41688344013B127
:103320000CB1012000E0002070BDF0B50346002480
:1033300000260025002040F66A17B94200D100BFE0
:103340001846C1F3421401F01F06012707FA06F5DB
:10335000012C01D10C3004E0022C01D1103000E02E
:1033600014301AB107682F43076002E00768AF43C3
:103370000760F0BD2DE9F04786B005460E460024F3
:10338000A24600BFA1460027B08900B100BF2F466A
:103390002C8A4CF6FF700440F08804432C82AC89E0
:1033A0004EF6F3100440B088318908437189084310
:1033B0000443AC81AC8A4FF6FF400440B08904431B
:1033C000AC8201A8FFF7A4F91F48874202D1DDF8BB
:1033D00010A001E0DDF80CA0A88900F4004040B185
:1033E0000AEBCA0000EB0A1031684900B0FBF1F8A3
:1033F00007E00AEBCA0000EB0A1031688900B0FB55
:10340000F1F86420B8FBF0F004012009642101FB0D
:103410001089A88900F4004040B1322000EBC900B7
:10342000B0FBF1F000F00700044308E0322000EBAD
:1034300009106421B0FBF1F000F00F0004432C816F
:1034400006B0BDE8F08700000038014001468888DA
:10345000C0F30800704770B504460D46C5F3080078
:10346000A08000BF80212046FFF728FF0028F9D068
:1034700070BDC1F308028280704700BFFEE7000004
:103480000FB4054B10B503A9044A029800F000F9E7
:1034900010BC5DF814FB0000A1400008F000002003
:1034A0000FB4084B10B504A902AA039800F0F0F875
:1034B000044602A9002000F082FC204610BC5DF802
:1034C00014FB0000BF3D000837B514460846064B04
:1034D0006A46214600F0DCF804466946002000F008
:1034E0006EFC20463EBD0000BF3D000802E008C85B
:1034F000121F08C1002AFAD170477047002001E06E
:1035000001C1121F002AFBD1704700002DE9FF5FA7
:1035100082B00021DDE90430020DDDF840B0034344
:1035200018D044F61050A2F2FF32424315141198FD
:1035300001281FD0A5EB0B00401C5FEA000A4FF0EA
:1035400000064E4FDFF83891B046504615D5CAF107
:10355000000413E0119801244AA3012801D16FEA65
:103560000B010298119AC0E90031C0E9024206B08D
:10357000BDE8F09FCBF10000DFE704460021404AA0
:10358000491842EB0450CDE9001012E0E00707D0E3
:1035900032463B4640464946FDF749F88046894653
:1035A00032463B4610461946FDF741F806460F469F
:1035B0006410002CEAD1DDE90401DDE90023BAF151
:1035C000000F06DAFDF733F842464B46FDF72FF8B9
:1035D00005E0FDF79EF842464B46FDF79AF8044693
:1035E0000E460022284BFDF7E9FA03D84FF0FF30D2
:1035F000014607E00022254B20463146FCF770FFCC
:10360000FDF7C4FA102409E0002C0ADB0A2200238B
:10361000FDF783F9039B30321A55641E50EA01020C
:10362000F2D1641C039AC4F111031444119A012AC3
:1036300003D0012208430DD10AE0084304D0002042
:103640004FF0110B119072E7A3EB0B056D1E0DE00F
:103650005B4504DD4FF0000205F1010504E003DAEB
:103660004FF00002A5F10105002AECD00298119953
:10367000C0E90231C0E9004579E7000000001440CC
:103680000000F03F300000000000F0430000E03F89
:103690002DE9FF4F95B09B468946064600250FE26F
:1036A000252877D100242746F84A0121059400E017
:1036B000044316F8013F203B01FA03F01042F7D112
:1036C00030782A2811D06FF02F033078A0F1300223
:1036D000092A16D8059A44F0020402EB820203EB91
:1036E00042021044761C0590EFE759F8042B05922E
:1036F000002A03DA504244F40054059044F00204D6
:10370000761C30782E2816D116F8010F44F00404E8
:103710002A280DD06FF02F023078A0F13003092B4A
:1037200009D807EB870302EB4303C718761CF3E7BE
:1037300059F8047B761C30786C280FD006DC4C28B6
:1037400017D068280DD06A2814D104E0742810D04E
:103750007A280FD10DE044F400140AE044F48014F8
:1037600001E044F440147278824202D104F58014DE
:10377000761C761C307866280BD013DC582877D05E
:1037800009DC002875D04528F6D04628F4D0472813
:103790001AD19DE118E0632835D0642879D06528D6
:1037A00012D195E1702873D008DC6728F1D0692820
:1037B0006FD06E280DD06F2806D1B5E073282CD0BD
:1037C000752875D0782874D05A46179990476D1C83
:1037D00075E1C4F30250022809D003280DD0D9F8AE
:1037E000001004280DD00D6009F1040967E1D9F833
:1037F0000010EA17C1E90052F6E7D9F800100D8071
:10380000F2E70D70F0E719F8041B8DF800100020A6
:103810008DF80100EA46012003E059F804AB4FF0AF
:10382000FF3061074FF0000102D40DE008F1010103
:103830008846B9420FDA8045F8DB1AF808100029EB
:10384000F4D108E008F1010188468142FADB1AF858
:1038500008100029F6D105985B46A0EB0807214621
:103860003846179A00F094FA284400EB080507E060
:103870004DE029E10DE01AF8010B5A4617999047DF
:10388000B8F10108F7D25B4621463846179A13E192
:1038900042E00A220092C4F302524FF0000A022AC8
:1038A00008D059F804CB032A4FEAEC710AD00DE096
:1038B00029E02AE009F1070121F00702F2E802C13C
:1038C000914609E00FFA8CFC4FEAEC71042A03D10F
:1038D0004FFA8CFC4FEAEC71002907DA0A46002106
:1038E000DCF1000C61EB02012D2202E0220504D57F
:1038F0002B228DF80420012203E0E20701D02022D0
:10390000F7E7904659E00A2102E010220DE010216D
:103910004FF0000A00910BE010224FF0000A44F033
:1039200004040827009203E008224FF0000A0092E6
:10393000C4F30252022A05D059F804CB0021032A0D
:1039400008D009E009F1070121F00702F2E802C1FD
:10395000914605E01FFA8CFC042A01D10CF0FF0C03
:103960004FF00008220728D5702806D0009B83F06E
:10397000100353EA0A0305D00EE040228DF804201C
:10398000012208E05CEA010206D030228DF8042012
:103990008DF8050002229046009B83F0080353EA4D
:1039A0000A030AD15CEA010201D1620705D530227F
:1039B0008DF804204FF001087F1E582804D034A051
:1039C00003900EA802900DE036A0F9E7534660463A
:1039D000009AFCF7A2FF84460398825C0298401E7E
:1039E000029002705CEA0100F0D1029806A9081A60
:1039F00000F1200A600702D524F4803400E001279A
:103A0000574502DDA7EB0A0000E0002000EB0A01A9
:103A1000009005984144401A0590E00306D45B46A7
:103A20002146179A059800F0B3F90544002706E0EF
:103A300001A85A46C05D179990476D1C7F1C4745E9
:103A4000F6DBE0030CD55B462146179A059800F09B
:103A50009FF9054404E030205A46179990476D1CA1
:103A60000099481E00900029F5DC08E002980299B0
:103A70005A460078491C0291179990476D1CBAF17B
:103A80000001AAF1010AF1DC65E10000092801004A
:103A900030313233343536373839616263646566C4
:103AA0000000000030313233343536373839414286
:103AB000434445460000000000F058F90544761CD8
:103AC000307800287FF4ECAD19B02846BDE8F08FBF
:103AD000620700D4062709F1070222F0070CFCE870
:103AE0000223E14603F000485FEA080C02D00FF21F
:103AF000702C0DE05FEA045C02D50FF2682C07E041
:103B00005FEAC47C02D00FF2602C01E0AFF2700CCF
:103B10004FF0FF3823F00043CDF850C065280CD09B
:103B200006DC452809D046281DD047283DD13DE078
:103B3000662818D067287ED138E00021112F01DBDC
:103B4000112000E0781CCDE9000106A90EA8FFF7BE
:103B5000DDFCDDE90F010E9A03910021009207F1CF
:103B6000010A04914DE04FF000400097CDE90110AB
:103B700006A90EA8FFF7CAFCDDE90F0203920E9B0F
:103B800011990022DDF80CA00093049211B9791C60
:103B900000EB010AB7EB0A0004D4C0F1FF3007F1D3
:103BA000010A0490AAEB0700019044E0012F00DA1B
:103BB00001270021112F01DD112000E03846CDE959
:103BC000000106A90EA8FFF7A1FCDDE90F010E9A7E
:103BD0000391002104910092BA4621070CD4039965
:103BE000514500DA8A46BAF1010F05DD009AAAF1C3
:103BF0000101515C302908D0B84202DA10F1040FFB
:103C000006DA0121CDE9011015E0AAF10101E9E789
:103C1000002805DC049901440491AAEB000102E0AC
:103C2000411C514500DD8A460499401A401C019010
:103C30004FF000400290200704D40198504501DB6A
:103C4000CDF8048000208DF84F0002980DF14F0749
:103C5000B0F1004F25D02B200E9002984FF00208B3
:103C600000280CDA404202902D200E9007E00A2135
:103C70000298FCF73CFE3031029007F8011DB8F1C4
:103C80000001A8F10108F2DC02980028EFD1791EAA
:103C90000E980870307800F0200040F0450007F8DA
:103CA000020D12A8C01B00F107081498007800B19B
:103CB000012000EB0A01019801EBE07105984144F5
:103CC000401A401E0590E00306D45B462146179A31
:103CD000059800F05DF805441498007818B15A462C
:103CE000179990476D1CE00324D55B462146179A2F
:103CF000059800F04DF805441CE00498002807DB07
:103D0000DDE90301884203DD0098405C179901E07A
:103D1000179930205A469047049805F10105401C38
:103D200004900198401E019004D12E205A46179904
:103D300090476D1CBAF10001AAF1010ADDDC05E033
:103D400017F8010B5A46179990476D1CB8F10001FE
:103D5000A8F10108F4DC5B462146179A0598ABE60A
:103D60002D0000002B000000200000002DE9F04194
:103D7000044600251E461746880404D405E039464B
:103D80002020B0476D1C641EF9D52846BDE8F0819F
:103D90002DE9F041044600251E469046C80301D592
:103DA000302700E02027880404D505E04146384646
:103DB000B0476D1C641EF9D52846BDE8F0810A683D
:103DC000531C0B601070704700F1080343F821206A
:103DD000704770B50446606880470546E07800F09B
:103DE0000700002802DD2088401C2080E078B5EB29
:103DF000D01F13D0E078C008401CE17860F3C50103
:103E0000E170C1F3C20005280CDBE07865F3C71050
:103E1000E070E07820F03800E07003E0E07820F017
:103E20003800E070E07800F00700062826D2DFE8CE
:103E300000F0032652A3ECC4E078C0F38010E178D0
:103E4000B0EBD11F15D1A07820F0F000A070A068D1
:103E500010B12046A168884700202080A07820F07B
:103E60000F00401CA070E07820F00700401CE070BC
:103E700004E0A07820F0F0008030A070C5E0E07889
:103E8000C0F38010E178B0EBD11F11D0A07820F002
:103E9000F0001030A070E06810B12046E16888475B
:103EA00000202080E07820F00700801CE07011E006
:103EB0002088C8280EDDA07820F0F0005030A070D7
:103EC000E06910B12046E1698847E07820F00700FA
:103ED000401DE07099E0E078C0F38010E178B0EB2D
:103EE000D11F12D1A06810B12046A1688847A078E0
:103EF000401CA17860F30301A17000202080E078CD
:103F000020F00700C01CE07035E020883C2832DD3E
:103F1000A07800F00F0001280AD1A07820F0F0006E
:103F20002030A070206910B32046216988471EE028
:103F3000A07800F00F0002280AD1A07820F0F0004D
:103F40003030A070606990B12046616988470EE00A
:103F5000A07800F00F00032809D1A07820F0F0002D
:103F60004030A070A06910B12046A1698847E07870
:103F700020F00700E07048E0E078C0F38010E178BE
:103F8000B0EBD11F18D0A07820F0F0001030A07056
:103F9000E06810B12046E168884720883C2807DAAD
:103FA00000202080E07820F00700801CE07003E013
:103FB000E07820F00700E07027E0E078C0F38010A0
:103FC000E178B0EBD11F11D1A07820F0F000603083
:103FD000A0702088642190FBF1F201FB120098B9D7
:103FE000206A88B12046216A88470DE0A07820F039
:103FF000F0001030A070E06810B12046E1688847FA
:10400000E07820F00700E07000BF00BF70BD70B521
:1040100004460D46164628212046FCF78AF8A0786B
:1040200020F0F0008030A070656060688047E17823
:1040300060F3C711E170E07866F38610E07070BD40
:1040400001460948026805E08A4202D14FF0FF307C
:104050007047526A002AF7D1034800684862024854
:1040600001600020F4E70000A800002010B505481A
:10407000046803E02046FFF7ACFE646A002CF9D127
:1040800010BD0000A800002070B504462046FCF7D3
:10409000AFFB05460149FCF7E5F970BD00C0A84536
:1040A00070B504460D46E1B20548FFF7E2F900BFDE
:1040B00080210348FFF702F90028F9D0204670BD9F
:1040C0000038014086B04FF4A060FEF72FF9FEF7EC
:1040D000A1F84FF4E13000F09BF9012000F0FCF969
:1040E000FDF70CFB41F61F410920FEF78DFEFDF7A1
:1040F0000FFDFDF795FA002277497848FFF787FF13
:10410000774A04217548FFF75FFE764A022173481B
:10411000FFF75AFE744A03217048FFF755FE734AB1
:1041200005216E48FFF750FE6C48FFF789FFFEF748
:1041300087FAFDF7B9F8FCF7F3FFFEF73FFDFEF74E
:104140001FF96BA0FFF79CF9C5E0FDF731FC6E4944
:10415000087008460078002847D0084600780128F3
:1041600006D0022811D003281CD004283CD12AE014
:10417000FEF7E6F86548007800EB4000644901EB83
:1041800080004078614908702EE0FEF7D9F85F485A
:10419000007800EB40005E4901EB800000795B494C
:1041A000087021E059480078042801DAFEF7C8F8C1
:1041B0005648007800EB4000554901EB80008078BC
:1041C0005249087010E051480078042801DAFEF7DF
:1041D000B7F84E48007800EB40004D4901EB8000F5
:1041E000C0784A49087000BF00BF4849097801EB10
:1041F0004101474A02EB810188688047FEF7F4FAE3
:10420000FDF798FCFDF7EEFB01281CD1414942A0C7
:10421000FFF736F969463F4800F0A6F8002407E0AA
:104220005DF82420214642A0FFF72AF9601CC4B2A1
:10423000062CF5DB42490098088042490198088025
:104240004149029808800398012806D120213F485F
:10425000FDF793FB002003900CE03D4800883849AF
:104260000988884206DD20213848FDF784FB0020BC
:10427000384908600498032805D14FF48071334809
:10428000FDF77BFB0DE0344800882E490988884201
:1042900007DD4FF480712D48FDF76DFB00202F499D
:1042A00008600598052805D14FF400712748FDF7EF
:1042B00064FB0DE02A48008823490988884207DD0D
:1042C0004FF400712148FDF756FB00202549086096
:1042D0003220FDF7BCF838E7B1430008F4000020B5
:1042E000D9110008DD110008C1110008CD11000826
:1042F0004C4F5241C4A3BFE9B2E2CAD4B3CCD0F20E
:10430000BFAACABC0D0A00004D0000204C000020CE
:10431000500000201C0100205553415254335F527D
:10432000585F425546203D2025730D0A0D0A0000B6
:10433000646174615B25645D3D25640D0A000000C5
:10434000140000201600002018000020000C01407E
:10435000C4000020AC000020C6000020B0000020F7
:10436000C8000020B40000202DE9F04107460C46AB
:104370000BA13846FBF7F0FE054600260BE004EBE8
:10438000860208A12846FBF709FF05A10020FBF7DC
:10439000E3FE0546761C002DF1D1BDE8F08100005A
:1043A0007C000000252A5B5E3D5D3D256400000029
:1043B00010B508210148FDF7D5FA10BD00080140ED
:1043C0000FB438B505A800900F48009A0499FFF77C
:1043D0007BF8002000900C48FBF7B6FE85B2002465
:1043E0000DE000BF40210948FEF768FF0028F9D022
:1043F0000548015D0548FFF73CF8601C84B2AC42FB
:10440000EFDB38BC5DF814FB1C05002000480040C1
:104410001CB5044601210820FEF75AF90121880441
:10442000FEF736F92748FEF7FBFE4FF48060ADF843
:10443000000003208DF8020018208DF80300694663
:104440002148FDF7BBF94FF40060ADF800000420EF
:104450008DF8030069461C48FDF7B0F91B4804605D
:1044600000201A498880C880088188810C204881F2
:104470001448FEF77FFF01211248FEF7C4FE012217
:1044800040F225510F48FEF750FF27208DF8040019
:1044900002208DF8050003208DF8060001208DF81C
:1044A000070001A8FDF70AFF41F61F416320FEF750
:1044B0005FFC00200649088000210648FEF7D8FC72
:1044C0001CBD000000480040000C014074070020A3
:1044D000DC0000200004004010B5044600210A481A
:1044E000FEF791FE1CB10C200849488102E008202B
:1044F0000649488105490448FEF73CFF012102486E
:10450000FEF781FE10BD0000004800407407002047
:104510000000000000000000002F00000000070065
:10452000070000147F147F1400242A7F2A120062DF
:10453000640813230036495522500000050300008B
:1045400000001C224100000041221C000014083E13
:1045500008140008083E0808000000A060000008D9
:10456000080808080000606000000020100804022D
:10457000003E5149453E0000427F400000426151EB
:104580004946002141454B31001814127F10002785
:1045900045454539003C4A49493000017109050348
:1045A00000364949493600064949291E0000363679
:1045B00000000000563600000008142241000014DC
:1045C00014141414000041221408000201510906B9
:1045D00000324959513E007C1211127C007F49493A
:1045E0004936003E41414122007F4141221C007F6B
:1045F00049494941007F09090901003E4149497A79
:10460000007F0808087F0000417F410000204041F2
:104610003F01007F08142241007F40404040007F5E
:10462000020C027F007F0408107F003E4141413EA2
:10463000007F09090906003E4151215E007F0919EA
:1046400029460046494949310001017F0101003FE7
:104650004040403F001F2040201F003F4038403F67
:1046600000631408146300070870080700615149CB
:10467000454300007F41410000552A552A5500005E
:1046800041417F00000402010204004040404040DC
:10469000000001020400002054545478007F484474
:1046A000443800384444442000384444487F0038AB
:1046B0005454541800087E0901020018A4A4A47CD4
:1046C000007F080404780000447D4000004080849E
:1046D0007D00007F102844000000417F4000007CE6
:1046E00004180478007C08040478003844444438F2
:1046F00000FC242424180018242418FC007C08043E
:10470000040800485454542000043F444020003C16
:104710004040207C001C2040201C003C4030403C9D
:10472000004428102844001CA0A0A07C004464542D
:104730004C44141414141414000000000000000071
:104740000000000000000000000000F80000000071
:10475000000000333000000000100C06100C0600B2
:10476000000000000000000040C07840C078400019
:10477000043F04043F040400007088FC083000007B
:10478000001820FF211E0000F008F000E0180000D3
:1047900000211C031E211E0000F00888700000008C
:1047A0001E2123241927211010160E0000000000DE
:1047B0000000000000000000000000E018040200FB
:1047C000000000071820400000020418E00000006C
:1047D0000040201807000000404080F0804040006A
:1047E0000202010F01020200000000F000000000C0
:1047F0000101011F01010100000000000000000094
:1048000080B0700000000000000000000000000008
:104810000001010101010101000000000000000091
:10482000003030000000000000000000806018042C
:10483000006018060100000000E010080810E00009
:10484000000F102020100F00001010F800000000D2
:104850000020203F20200000007008080888700019
:104860000030282422213000003008888848300099
:104870000018202020110E000000C02010F80000B9
:1048800000070424243F240000F808888808080052
:104890000019212020110E0000E010888818000067
:1048A000000F112020110E0000380808C838080039
:1048B0000000003F000000000070880808887000B9
:1048C000001C222121221C0000E010080810E0003A
:1048D0000000312222110F00000000C0C0000000C3
:1048E00000000030300000000000008000000000E8
:1048F00000008060000000000000804020100800E0
:1049000000010204081020004040404040404000A8
:104910000404040404040400000810204080000083
:104920000020100804020100007048080808F00088
:104930000000003036010000C030C828E810E00058
:104940000718272423140B000000C038E0000000E3
:10495000203C23020227382008F88888887000004D
:10496000203F202020110E00C03008080808380021
:10497000071820202010080008F808080810E00098
:10498000203F202020100F0008F88888E808100039
:10499000203F20202320180008F88888E80810000D
:1049A000203F200003000000C03008080838000045
:1049B00007182020221E020008F808000008F80846
:1049C000203F210101213F20000808F808080000CD
:1049D0000020203F2020000000000808F808080000
:1049E000C08080807F00000008F888C02818080078
:1049F000203F20012638200008F8080000000000B1
:104A0000203F20202020300008F8F800F8F80800A7
:104A1000203F003F003F200008F830C00008F808A1
:104A2000203F200007183F00E01008080810E000B1
:104A30000F10202020100F0008F808080808F000C8
:104A4000203F210101010000E01008080810E000EB
:104A50000F18242438504F0008F888888888700080
:104A6000203F2000030C3020007088080808380020
:104A70000038202121221C00180808F80808180016
:104A80000000203F2000000008F808000008F80897
:104A9000001F202020201F000878880000C8380848
:104AA000000007380E010000F80800F80008F800C0
:104AB000033C0700073C030008186880806818085A
:104AC00020302C03032C30200838C800C8380800D8
:104AD0000000203F2000000010080808C838080027
:104AE0002038262120201800000000FE02020200CB
:104AF0000000007F40404000000C30C0000000007B
:104B0000000000010638C00000020202FE000000A2
:104B1000004040407F000000000004020202040048
:104B20000000000000000000000000000000000085
:104B3000808080808080808000020204000000006D
:104B40000000000000000000000080808080000065
:104B50000019242222223F2008F800808000000053
:104B6000003F112020110E00000000808080000016
:104B7000000E112020201100000000808088F80025
:104B8000000E112020103F20000080808080000057
:104B9000001F222222221300008080F088888818BB
:104BA0000020203F202000000000808080808000C6
:104BB000006B94949493600008F80080808000005B
:104BC000203F210000203F20008098980000000036
:104BD0000020203F20200000000000809898000066
:104BE00000C08080807F000008F800008080800086
:104BF000203F24022D302000000808F800000000AB
:104C00000020203F20200000808080808080800065
:104C1000203F20003F20003F8080008080800000F7
:104C2000203F210000203F20000080808080000085
:104C3000001F202020201F008080008080000000B6
:104C400080FFA12020110E000000008080808000E5
:104C5000000E112020A0FF808080800080808000D6
:104C600020203F2120000100000080808080800003
:104C70000033242424241900008080E08080000078
:104C80000000001F202000008080000000808000C5
:104C9000001F202020103F20808080000080808026
:104CA00000010E30080601008080008000808080B6
:104CB0000F300C030C300F000080800080808000DB
:104CC0000020312E0E312000808080000080808006
:104CD00080818E70180601000080808080808000B6
:104CE0000021302C2221300000000000807C0202D4
:104CF00000000000003F404000000000FF000000F6
:104D000000000000FF0000000002027C80000000A4
:104D10000040403F000000000006010102020404C0
:104D200000000000000000001010D0FF9050205044
:104D30004C434C50204040000000000000000000A8
:104D40000000000000000000040300FF0041445880
:104D5000414E605847404000000000000000000045
:104D600000000000000000001060028C00FE02F253
:104D700002FE00F800FF000000000000000000003C
:104D8000000000000000000004047E018047300F96
:104D900010270047807F0000000000000000000096
:104DA0000000000000000000000000FE929292FE51
:104DB000929292FE0000000000000000000000003F
:104DC000000000000000000008080484621E0100CA
:104DD00001FE0204040808000000000000000000BA
:104DE00000000000000000000202E22222F22E2257
:104DF00022E22222E2020200000000000000000085
:104E000000000000000000000000FF40407F494912
:104E1000497F4040FF00000000000000000000004B
:104E20000000000000000000101010FF90209848C3
:104E300028090E2848A81800000000000000000003
:104E400000000000000000000242817F004040425C
:104E500042427E424242400000000000000000004A
:104E6000000000000000000040504E4848FF484845
:104E70004840F80000FF00000000000000000000B3
:104E8000000000000000000000003E0202FF1222AD
:104E90001E000F40807F00000000000000000000A6
:104EA0000000000000000000DDDDDDDDDCBBBBDD5F
:104EB000DDDDDDDDDDDDDDDD9888888888888888BA
:104EC00077777777778888888555555666666666DA
:104ED00066666666666888888333333222222222B9
:104EE000222222222228888D084F0008000000205C
:104EF000F4000000EC340008FC4F0008F40000202F
:104F0000940A0000FC3400080000000001020304C1
:104F10000102030406070809020406080000000055
:104F20000000000000000000000000000000000081
:104F30000000000000000000000000000000000071
:104F40000000000000000000000000000000000061
:104F50000000000000000000000100000000000050
:104F6000D51C000801040203000000006D1B0008AE
:104F70000205030100000000E51B00080306010212
:104F8000000000005D1C000804040404010000008F
:104F9000AD1F00080505050501000000852000087B
:104FA00006060606010000004D2100080000000072
:104FB00000000000000000000000000000000000F1
:104FC00000000000000000000000000000000000E1
:104FD00000000000000000000000000000000000D1
:104FE00000000000000000000000000000000000C1
:0C4FF000000000000000000000000000B5
:04000005080000ED02
:00000001FF
